{
  "contractName": "Company",
  "abi": [
    {
      "inputs": [
        {
          "internalType": "bytes32",
          "name": "companyId",
          "type": "bytes32"
        },
        {
          "internalType": "string",
          "name": "companyName",
          "type": "string"
        },
        {
          "internalType": "uint8",
          "name": "openAtHour",
          "type": "uint8"
        },
        {
          "internalType": "uint8",
          "name": "closeAtHour",
          "type": "uint8"
        }
      ],
      "payable": false,
      "stateMutability": "nonpayable",
      "type": "constructor"
    },
    {
      "anonymous": false,
      "inputs": [
        {
          "indexed": false,
          "internalType": "bytes32",
          "name": "username",
          "type": "bytes32"
        },
        {
          "indexed": false,
          "internalType": "address",
          "name": "addr",
          "type": "address"
        }
      ],
      "name": "EmployeeAdded",
      "type": "event"
    },
    {
      "anonymous": false,
      "inputs": [
        {
          "indexed": false,
          "internalType": "address",
          "name": "addr",
          "type": "address"
        }
      ],
      "name": "EmployeeRemoved",
      "type": "event"
    },
    {
      "anonymous": false,
      "inputs": [
        {
          "indexed": false,
          "internalType": "bytes32",
          "name": "roomId",
          "type": "bytes32"
        }
      ],
      "name": "RoomAdded",
      "type": "event"
    },
    {
      "anonymous": false,
      "inputs": [
        {
          "indexed": false,
          "internalType": "bytes32",
          "name": "roomId",
          "type": "bytes32"
        }
      ],
      "name": "RoomRemoved",
      "type": "event"
    },
    {
      "constant": true,
      "inputs": [
        {
          "internalType": "address",
          "name": "",
          "type": "address"
        }
      ],
      "name": "_addr2Employee",
      "outputs": [
        {
          "internalType": "address",
          "name": "addr",
          "type": "address"
        },
        {
          "internalType": "bytes32",
          "name": "username",
          "type": "bytes32"
        }
      ],
      "payable": false,
      "stateMutability": "view",
      "type": "function"
    },
    {
      "constant": true,
      "inputs": [],
      "name": "_closeAtHour",
      "outputs": [
        {
          "internalType": "uint8",
          "name": "",
          "type": "uint8"
        }
      ],
      "payable": false,
      "stateMutability": "view",
      "type": "function"
    },
    {
      "constant": true,
      "inputs": [],
      "name": "_companyId",
      "outputs": [
        {
          "internalType": "bytes32",
          "name": "",
          "type": "bytes32"
        }
      ],
      "payable": false,
      "stateMutability": "view",
      "type": "function"
    },
    {
      "constant": true,
      "inputs": [
        {
          "internalType": "uint256",
          "name": "",
          "type": "uint256"
        }
      ],
      "name": "_employeeAddrs",
      "outputs": [
        {
          "internalType": "address",
          "name": "",
          "type": "address"
        }
      ],
      "payable": false,
      "stateMutability": "view",
      "type": "function"
    },
    {
      "constant": true,
      "inputs": [],
      "name": "_openAtHour",
      "outputs": [
        {
          "internalType": "uint8",
          "name": "",
          "type": "uint8"
        }
      ],
      "payable": false,
      "stateMutability": "view",
      "type": "function"
    },
    {
      "constant": true,
      "inputs": [
        {
          "internalType": "bytes32",
          "name": "",
          "type": "bytes32"
        }
      ],
      "name": "_roomId2Room",
      "outputs": [
        {
          "internalType": "bytes32",
          "name": "roomId",
          "type": "bytes32"
        },
        {
          "internalType": "string",
          "name": "name",
          "type": "string"
        }
      ],
      "payable": false,
      "stateMutability": "view",
      "type": "function"
    },
    {
      "constant": true,
      "inputs": [
        {
          "internalType": "uint256",
          "name": "",
          "type": "uint256"
        }
      ],
      "name": "_roomIds",
      "outputs": [
        {
          "internalType": "bytes32",
          "name": "",
          "type": "bytes32"
        }
      ],
      "payable": false,
      "stateMutability": "view",
      "type": "function"
    },
    {
      "constant": true,
      "inputs": [],
      "name": "getOwner",
      "outputs": [
        {
          "internalType": "address",
          "name": "",
          "type": "address"
        }
      ],
      "payable": false,
      "stateMutability": "view",
      "type": "function"
    },
    {
      "constant": true,
      "inputs": [],
      "name": "isOwner",
      "outputs": [
        {
          "internalType": "bool",
          "name": "",
          "type": "bool"
        }
      ],
      "payable": false,
      "stateMutability": "view",
      "type": "function"
    },
    {
      "constant": true,
      "inputs": [],
      "name": "owner",
      "outputs": [
        {
          "internalType": "address",
          "name": "",
          "type": "address"
        }
      ],
      "payable": false,
      "stateMutability": "view",
      "type": "function"
    },
    {
      "constant": false,
      "inputs": [
        {
          "internalType": "address",
          "name": "_newOwner",
          "type": "address"
        }
      ],
      "name": "transferOwnership",
      "outputs": [],
      "payable": false,
      "stateMutability": "nonpayable",
      "type": "function"
    },
    {
      "constant": false,
      "inputs": [
        {
          "internalType": "bytes32",
          "name": "roomId",
          "type": "bytes32"
        },
        {
          "internalType": "string",
          "name": "name",
          "type": "string"
        }
      ],
      "name": "addRoom",
      "outputs": [],
      "payable": false,
      "stateMutability": "nonpayable",
      "type": "function"
    },
    {
      "constant": false,
      "inputs": [
        {
          "internalType": "bytes32",
          "name": "roomId",
          "type": "bytes32"
        }
      ],
      "name": "removeRoom",
      "outputs": [],
      "payable": false,
      "stateMutability": "nonpayable",
      "type": "function"
    },
    {
      "constant": true,
      "inputs": [
        {
          "internalType": "bytes32",
          "name": "rId",
          "type": "bytes32"
        }
      ],
      "name": "getRoomInfo",
      "outputs": [
        {
          "internalType": "bytes32",
          "name": "roomId",
          "type": "bytes32"
        },
        {
          "internalType": "string",
          "name": "name",
          "type": "string"
        }
      ],
      "payable": false,
      "stateMutability": "view",
      "type": "function"
    },
    {
      "constant": true,
      "inputs": [
        {
          "internalType": "bytes32",
          "name": "roomId",
          "type": "bytes32"
        }
      ],
      "name": "roomExists",
      "outputs": [
        {
          "internalType": "bool",
          "name": "",
          "type": "bool"
        }
      ],
      "payable": false,
      "stateMutability": "view",
      "type": "function"
    },
    {
      "constant": false,
      "inputs": [
        {
          "internalType": "bytes32",
          "name": "username",
          "type": "bytes32"
        },
        {
          "internalType": "address",
          "name": "addr",
          "type": "address"
        }
      ],
      "name": "addEmployee",
      "outputs": [],
      "payable": false,
      "stateMutability": "nonpayable",
      "type": "function"
    },
    {
      "constant": false,
      "inputs": [
        {
          "internalType": "address",
          "name": "addr",
          "type": "address"
        }
      ],
      "name": "removeEmployee",
      "outputs": [],
      "payable": false,
      "stateMutability": "nonpayable",
      "type": "function"
    },
    {
      "constant": true,
      "inputs": [
        {
          "internalType": "bytes32",
          "name": "username",
          "type": "bytes32"
        }
      ],
      "name": "getEmployeeAddr",
      "outputs": [
        {
          "internalType": "address",
          "name": "",
          "type": "address"
        }
      ],
      "payable": false,
      "stateMutability": "view",
      "type": "function"
    },
    {
      "constant": true,
      "inputs": [
        {
          "internalType": "address",
          "name": "addr",
          "type": "address"
        }
      ],
      "name": "getEmployeeUsername",
      "outputs": [
        {
          "internalType": "bytes32",
          "name": "",
          "type": "bytes32"
        }
      ],
      "payable": false,
      "stateMutability": "view",
      "type": "function"
    },
    {
      "constant": true,
      "inputs": [
        {
          "internalType": "address",
          "name": "addr",
          "type": "address"
        }
      ],
      "name": "employeeExists",
      "outputs": [
        {
          "internalType": "bool",
          "name": "",
          "type": "bool"
        }
      ],
      "payable": false,
      "stateMutability": "view",
      "type": "function"
    }
  ],
  "bytecode": "0x60806040523480156200001157600080fd5b50604051620018cc380380620018cc833981810160405260808110156200003757600080fd5b8101908080519060200190929190805160405193929190846401000000008211156200006257600080fd5b838201915060208201858111156200007957600080fd5b82518660018202830111640100000000821117156200009757600080fd5b8083526020830192505050908051906020019080838360005b83811015620000cd578082015181840152602081019050620000b0565b50505050905090810190601f168015620000fb5780820380516001836020036101000a031916815260200191505b50604052602001805190602001909291908051906020019092919050505033806000806101000a81548173ffffffffffffffffffffffffffffffffffffffff021916908373ffffffffffffffffffffffffffffffffffffffff160217905550508360018190555082600290805190602001906200017a929190620001bb565b5081600360006101000a81548160ff021916908360ff16021790555080600360016101000a81548160ff021916908360ff160217905550505050506200026a565b828054600181600116156101000203166002900490600052602060002090601f016020900481019282601f10620001fe57805160ff19168380011785556200022f565b828001600101855582156200022f579182015b828111156200022e57825182559160200191906001019062000211565b5b5090506200023e919062000242565b5090565b6200026791905b808211156200026357600081600090555060010162000249565b5090565b90565b611652806200027a6000396000f3fe608060405234801561001057600080fd5b506004361061012c5760003560e01c80638da5cb5b116100ad578063cf59344111610071578063cf593441146106ab578063d108177a14610719578063e88724fd1461075d578063f2fde38b146107a3578063fb314a92146107e75761012c565b80638da5cb5b146104a85780638f32d59b146104f2578063a2b1b25514610514578063b6437d92146105c2578063bee0c385146105e65761012c565b806319d54f9e116100f457806319d54f9e1461034357806330e3b083146103915780634ea6ee75146103af5780635eee77211461043a578063893d20e81461045e5761012c565b80630474c0951461013157806308aede141461019f5780631024f2231461024d57806310d0e902146102a9578063190277d9146102eb575b600080fd5b61015d6004803603602081101561014757600080fd5b8101908080359060200190929190505050610815565b604051808273ffffffffffffffffffffffffffffffffffffffff1673ffffffffffffffffffffffffffffffffffffffff16815260200191505060405180910390f35b6101cb600480360360208110156101b557600080fd5b8101908080359060200190929190505050610851565b6040518083815260200180602001828103825283818151815260200191508051906020019080838360005b838110156102115780820151818401526020810190506101f6565b50505050905090810190601f16801561023e5780820380516001836020036101000a031916815260200191505b50935050505060405180910390f35b61028f6004803603602081101561026357600080fd5b81019080803573ffffffffffffffffffffffffffffffffffffffff169060200190929190505050610927565b604051808215151515815260200191505060405180910390f35b6102d5600480360360208110156102bf57600080fd5b8101908080359060200190929190505050610943565b6040518082815260200191505060405180910390f35b61032d6004803603602081101561030157600080fd5b81019080803573ffffffffffffffffffffffffffffffffffffffff169060200190929190505050610964565b6040518082815260200191505060405180910390f35b61038f6004803603604081101561035957600080fd5b8101908080359060200190929190803573ffffffffffffffffffffffffffffffffffffffff1690602001909291905050506109b0565b005b610399610c58565b6040518082815260200191505060405180910390f35b6103f1600480360360208110156103c557600080fd5b81019080803573ffffffffffffffffffffffffffffffffffffffff169060200190929190505050610c5e565b604051808373ffffffffffffffffffffffffffffffffffffffff1673ffffffffffffffffffffffffffffffffffffffff1681526020018281526020019250505060405180910390f35b610442610ca2565b604051808260ff1660ff16815260200191505060405180910390f35b610466610cb5565b604051808273ffffffffffffffffffffffffffffffffffffffff1673ffffffffffffffffffffffffffffffffffffffff16815260200191505060405180910390f35b6104b0610cde565b604051808273ffffffffffffffffffffffffffffffffffffffff1673ffffffffffffffffffffffffffffffffffffffff16815260200191505060405180910390f35b6104fa610d03565b604051808215151515815260200191505060405180910390f35b6105406004803603602081101561052a57600080fd5b8101908080359060200190929190505050610d5a565b6040518083815260200180602001828103825283818151815260200191508051906020019080838360005b8381101561058657808201518184015260208101905061056b565b50505050905090810190601f1680156105b35780820380516001836020036101000a031916815260200191505b50935050505060405180910390f35b6105ca610e16565b604051808260ff1660ff16815260200191505060405180910390f35b6106a9600480360360408110156105fc57600080fd5b81019080803590602001909291908035906020019064010000000081111561062357600080fd5b82018360208201111561063557600080fd5b8035906020019184600183028401116401000000008311171561065757600080fd5b91908080601f016020809104026020016040519081016040528093929190818152602001838380828437600081840152601f19601f820116905080830192505050505050509192919290505050610e29565b005b6106d7600480360360208110156106c157600080fd5b8101908080359060200190929190505050610f7f565b604051808273ffffffffffffffffffffffffffffffffffffffff1673ffffffffffffffffffffffffffffffffffffffff16815260200191505060405180910390f35b61075b6004803603602081101561072f57600080fd5b81019080803573ffffffffffffffffffffffffffffffffffffffff16906020019092919050505061103f565b005b6107896004803603602081101561077357600080fd5b81019080803590602001909291905050506111e6565b604051808215151515815260200191505060405180910390f35b6107e5600480360360208110156107b957600080fd5b81019080803573ffffffffffffffffffffffffffffffffffffffff169060200190929190505050611202565b005b610813600480360360208110156107fd57600080fd5b8101908080359060200190929190505050611290565b005b6006818154811061082257fe5b906000526020600020016000915054906101000a900473ffffffffffffffffffffffffffffffffffffffff1681565b60006060600560008481526020019081526020016000206000015460056000858152602001908152602001600020600101808054600181600116156101000203166002900480601f0160208091040260200160405190810160405280929190818152602001828054600181600116156101000203166002900480156109175780601f106108ec57610100808354040283529160200191610917565b820191906000526020600020905b8154815290600101906020018083116108fa57829003601f168201915b5050505050905091509150915091565b6000806000610935846113b1565b915091508092505050919050565b6004818154811061095057fe5b906000526020600020016000915090505481565b6000600760008373ffffffffffffffffffffffffffffffffffffffff1673ffffffffffffffffffffffffffffffffffffffff168152602001908152602001600020600101549050919050565b6109b8610d03565b6109c157600080fd5b600073ffffffffffffffffffffffffffffffffffffffff16600760008373ffffffffffffffffffffffffffffffffffffffff1673ffffffffffffffffffffffffffffffffffffffff16815260200190815260200160002060000160009054906101000a900473ffffffffffffffffffffffffffffffffffffffff1673ffffffffffffffffffffffffffffffffffffffff1614610ac5576040517f08c379a000000000000000000000000000000000000000000000000000000000815260040180806020018281038252601a8152602001807f4164647265737320697320616c726561647920696e207573652e00000000000081525060200191505060405180910390fd5b60068190806001815401808255809150509060018203906000526020600020016000909192909190916101000a81548173ffffffffffffffffffffffffffffffffffffffff021916908373ffffffffffffffffffffffffffffffffffffffff1602179055505060405180604001604052808273ffffffffffffffffffffffffffffffffffffffff16815260200183815250600760008373ffffffffffffffffffffffffffffffffffffffff1673ffffffffffffffffffffffffffffffffffffffff16815260200190815260200160002060008201518160000160006101000a81548173ffffffffffffffffffffffffffffffffffffffff021916908373ffffffffffffffffffffffffffffffffffffffff160217905550602082015181600101559050507f0866ada2f031b354aa18a796b3cadac89c35292d8768907a3515e2b11fecea5e8282604051808381526020018273ffffffffffffffffffffffffffffffffffffffff1673ffffffffffffffffffffffffffffffffffffffff1681526020019250505060405180910390a15050565b60015481565b60076020528060005260406000206000915090508060000160009054906101000a900473ffffffffffffffffffffffffffffffffffffffff16908060010154905082565b600360019054906101000a900460ff1681565b60008060009054906101000a900473ffffffffffffffffffffffffffffffffffffffff16905090565b6000809054906101000a900473ffffffffffffffffffffffffffffffffffffffff1681565b60008060009054906101000a900473ffffffffffffffffffffffffffffffffffffffff1673ffffffffffffffffffffffffffffffffffffffff163373ffffffffffffffffffffffffffffffffffffffff1614905090565b6005602052806000526040600020600091509050806000015490806001018054600181600116156101000203166002900480601f016020809104026020016040519081016040528092919081815260200182805460018160011615610100020316600290048015610e0c5780601f10610de157610100808354040283529160200191610e0c565b820191906000526020600020905b815481529060010190602001808311610def57829003601f168201915b5050505050905082565b600360009054906101000a900460ff1681565b610e31610d03565b610e3a57600080fd5b6000600560008481526020019081526020016000206000015414610ec6576040517f08c379a00000000000000000000000000000000000000000000000000000000081526004018080602001828103825260198152602001807f526f6f6d496420697320616c726561647920696e207573652e0000000000000081525060200191505060405180910390fd5b600482908060018154018082558091505090600182039060005260206000200160009091929091909150555060405180604001604052808381526020018281525060056000848152602001908152602001600020600082015181600001556020820151816001019080519060200190610f409291906114fb565b509050507fd4c94d141d2589b6b73d2654d948a75ddba3cd7642f01772523f0084a418ac12826040518082815260200191505060405180910390a15050565b600080600090505b600160068054905003811161103457600060068281548110610fa557fe5b9060005260206000200160009054906101000a900473ffffffffffffffffffffffffffffffffffffffff16905083600760008373ffffffffffffffffffffffffffffffffffffffff1673ffffffffffffffffffffffffffffffffffffffff16815260200190815260200160002060010154141561102657809250505061103a565b508080600101915050610f87565b50600090505b919050565b611047610d03565b61105057600080fd5b60008061105c836113b1565b91509150806110d3576040517f08c379a00000000000000000000000000000000000000000000000000000000081526004018080602001828103825260188152602001807f456d706c6f79656520646f6573206e6f7420657869737473000000000000000081525060200191505060405180910390fd5b6006600160068054905003815481106110e857fe5b9060005260206000200160009054906101000a900473ffffffffffffffffffffffffffffffffffffffff166006838154811061112057fe5b9060005260206000200160006101000a81548173ffffffffffffffffffffffffffffffffffffffff021916908373ffffffffffffffffffffffffffffffffffffffff160217905550600680548091906001900361117d919061157b565b507fabae6e64cb4315875c29d42347a312f5e9fce4ab564e9722b43dd78d0751135a83604051808273ffffffffffffffffffffffffffffffffffffffff1673ffffffffffffffffffffffffffffffffffffffff16815260200191505060405180910390a1505050565b60008060006111f48461147c565b915091508092505050919050565b61120a610d03565b61121357600080fd5b600073ffffffffffffffffffffffffffffffffffffffff168173ffffffffffffffffffffffffffffffffffffffff16141561124d57600080fd5b806000806101000a81548173ffffffffffffffffffffffffffffffffffffffff021916908373ffffffffffffffffffffffffffffffffffffffff16021790555050565b611298610d03565b6112a157600080fd5b6000806112ad8361147c565b9150915080611324576040517f08c379a00000000000000000000000000000000000000000000000000000000081526004018080602001828103825260168152602001807f526f6f6d496420646f6573206e6f74206578697374730000000000000000000081525060200191505060405180910390fd5b60046001600480549050038154811061133957fe5b90600052602060002001546004838154811061135157fe5b9060005260206000200181905550600480548091906001900361137491906115a7565b507f9ca9c07d7bb767d5f61a136cee40131ee9083c97365cce32d42ab1b1ac1cbd47836040518082815260200191505060405180910390a1505050565b600080600060068054905014156113d15760008081915091509150611477565b60008090505b600160068054905003811161146b578373ffffffffffffffffffffffffffffffffffffffff166006828154811061140a57fe5b9060005260206000200160009054906101000a900473ffffffffffffffffffffffffffffffffffffffff1673ffffffffffffffffffffffffffffffffffffffff16141561145e578060019250925050611477565b80806001019150506113d7565b50600080819150915091505b915091565b6000806000600480549050141561149c57600080819150915091506114f6565b60008090505b60016004805490500381116114ea5783600482815481106114bf57fe5b906000526020600020015414156114dd5780600192509250506114f6565b80806001019150506114a2565b50600080819150915091505b915091565b828054600181600116156101000203166002900490600052602060002090601f016020900481019282601f1061153c57805160ff191683800117855561156a565b8280016001018555821561156a579182015b8281111561156957825182559160200191906001019061154e565b5b50905061157791906115d3565b5090565b8154818355818111156115a2578183600052602060002091820191016115a191906115d3565b5b505050565b8154818355818111156115ce578183600052602060002091820191016115cd91906115f8565b5b505050565b6115f591905b808211156115f15760008160009055506001016115d9565b5090565b90565b61161a91905b808211156116165760008160009055506001016115fe565b5090565b9056fea265627a7a72315820859c67c8bfa8faabae61224417d5d54055e1f7be31430713a7a2f040f3423cfd64736f6c634300050c0032",
  "source": "pragma solidity ^0.5.0;\n\nimport \"./utils/Ownable.sol\";\n\n/**\n * @title Company: This contract stores enterprise information such a available rooms and employees\n * @author Gabriel Garrido\n */\ncontract Company is Ownable {\n\n    struct Room {\n        bytes32 roomId; // Limited to 32 chars\n        string name;\n    }\n\n    struct Employee {\n        address addr;\n        bytes32 username; // Limited to 32 chars\n    }\n\n    // Company information\n    bytes32 public _companyId;\n    string _companyName;\n\n    uint8 public _openAtHour; // 24h format\n    uint8 public _closeAtHour; // 24h format\n\n    // List of room ids\n    bytes32[] public _roomIds;\n    // Map of rooms and its info\n    mapping(bytes32 => Room) public _roomId2Room;\n\n    // List of employee's addresses\n    address[] public _employeeAddrs;\n    // Map of employee's address to employee info\n    mapping(address => Employee) public _addr2Employee;\n\n    event RoomAdded(bytes32 roomId);\n    event RoomRemoved(bytes32 roomId);\n    event EmployeeAdded(bytes32 username, address addr);\n    event EmployeeRemoved(address addr);\n\n    constructor(bytes32 companyId, string memory companyName, uint8 openAtHour, uint8 closeAtHour) Ownable(msg.sender) public {\n        _companyId = companyId;\n        _companyName = companyName;\n        _openAtHour = openAtHour;\n        _closeAtHour = closeAtHour;\n    }\n\n    /*\n     * ROOM MANAGING\n    */\n    function addRoom(bytes32 roomId, string memory name) onlyOwner public {\n        require(_roomId2Room[roomId].roomId == \"\", \"RoomId is already in use.\");\n        _roomIds.push(roomId);\n        _roomId2Room[roomId] = Room({\n            roomId : roomId,\n            name : name\n            });\n\n        emit RoomAdded(roomId);\n    }\n\n    function removeRoom(bytes32 roomId) onlyOwner public {\n        (uint idx, bool exists) = _getRoomIndex(roomId);\n        if (!exists) {\n            revert(\"RoomId does not exists\");\n        }\n\n        _roomIds[idx] = _roomIds[_roomIds.length - 1];\n        _roomIds.length--;\n\n        emit RoomRemoved(roomId);\n    }\n\n    function getRoomInfo(bytes32 rId) public view returns (bytes32 roomId, string memory name) {\n        return (_roomId2Room[rId].roomId, _roomId2Room[rId].name);\n    }\n\n    function roomExists(bytes32 roomId) public view returns (bool) {\n        (uint idx, bool exists) = _getRoomIndex(roomId);\n        return exists;\n    }\n\n\n    /*\n     * EMPLOYEE MANAGING\n    */\n\n    function addEmployee(bytes32 username, address addr) onlyOwner public {\n        require(_addr2Employee[addr].addr == address(0x0), \"Address is already in use.\");\n        // @TODO: Verify username is not duplicated\n        _employeeAddrs.push(addr);\n        _addr2Employee[addr] = Employee({\n            username : username,\n            addr : addr\n            });\n\n        emit EmployeeAdded(username, addr);\n    }\n\n    function removeEmployee(address addr) onlyOwner public {\n        (uint idx, bool exists) = _getEmployeeIndex(addr);\n        if (!exists) {\n            revert(\"Employee does not exists\");\n        }\n\n        _employeeAddrs[idx] = _employeeAddrs[_employeeAddrs.length - 1];\n        _employeeAddrs.length--;\n\n        emit EmployeeRemoved(addr);\n    }\n\n    function getEmployeeAddr(bytes32 username) public view returns (address) {\n        for (uint idx = 0; idx <= _employeeAddrs.length - 1; idx++) {\n            address addr = _employeeAddrs[idx];\n            if (_addr2Employee[addr].username == username) return addr;\n        }\n\n        return address(0x0);\n    }\n\n    function getEmployeeUsername(address addr) public view returns (bytes32) {\n        return _addr2Employee[addr].username;\n    }\n\n    function employeeExists(address addr) public view returns (bool) {\n        (uint idx, bool exists) = _getEmployeeIndex(addr);\n        return exists;\n    }\n\n\n    /*\n     * HELPERS\n    */\n\n    function _getEmployeeIndex(address addr) internal view returns (uint index, bool exists) {\n        if (_employeeAddrs.length == 0) return (0, false);\n\n        for (uint idx = 0; idx <= _employeeAddrs.length - 1; idx++) {\n            if (_employeeAddrs[idx] == addr) return (idx, true);\n        }\n\n        return (0, false);\n    }\n\n    function _getRoomIndex(bytes32 roomId) internal view returns (uint index, bool exists) {\n        if(_roomIds.length == 0) return (0, false);\n\n        for (uint idx = 0; idx <= _roomIds.length - 1; idx++) {\n            if (_roomIds[idx] == roomId) return (idx, true);\n        }\n\n        return (0, false);\n    }\n}\n",
  "sourcePath": "/home/ggarrido/projects/room-booking-dapp/contracts/Company.sol",
  "compiler": {
    "name": "solc",
    "version": "0.5.12+commit.7709ece9.Emscripten.clang"
  },
  "schemaVersion": "3.0.20",
  "updatedAt": "2020-01-11T17:49:20.003Z",
  "devdoc": {
    "author": "Gabriel Garrido",
    "methods": {},
    "title": "Company: This contract stores enterprise information such a available rooms and employees"
  },
  "userdoc": {
    "methods": {}
  }
}