{
  "contractName": "Company",
  "abi": [
    {
      "inputs": [
        {
          "internalType": "bytes32",
          "name": "companyId",
          "type": "bytes32"
        },
        {
          "internalType": "string",
          "name": "companyName",
          "type": "string"
        },
        {
          "internalType": "uint8",
          "name": "openAtHour",
          "type": "uint8"
        },
        {
          "internalType": "uint8",
          "name": "closeAtHour",
          "type": "uint8"
        }
      ],
      "payable": false,
      "stateMutability": "nonpayable",
      "type": "constructor"
    },
    {
      "anonymous": false,
      "inputs": [
        {
          "indexed": false,
          "internalType": "bytes32",
          "name": "username",
          "type": "bytes32"
        },
        {
          "indexed": false,
          "internalType": "address",
          "name": "addr",
          "type": "address"
        }
      ],
      "name": "EmployeeAdded",
      "type": "event"
    },
    {
      "anonymous": false,
      "inputs": [
        {
          "indexed": false,
          "internalType": "address",
          "name": "addr",
          "type": "address"
        }
      ],
      "name": "EmployeeRemoved",
      "type": "event"
    },
    {
      "anonymous": false,
      "inputs": [
        {
          "indexed": false,
          "internalType": "bytes32",
          "name": "roomId",
          "type": "bytes32"
        }
      ],
      "name": "RoomAdded",
      "type": "event"
    },
    {
      "anonymous": false,
      "inputs": [
        {
          "indexed": false,
          "internalType": "bytes32",
          "name": "roomId",
          "type": "bytes32"
        }
      ],
      "name": "RoomRemoved",
      "type": "event"
    },
    {
      "constant": true,
      "inputs": [
        {
          "internalType": "address",
          "name": "",
          "type": "address"
        }
      ],
      "name": "_addr2Employee",
      "outputs": [
        {
          "internalType": "address",
          "name": "addr",
          "type": "address"
        },
        {
          "internalType": "bytes32",
          "name": "username",
          "type": "bytes32"
        }
      ],
      "payable": false,
      "stateMutability": "view",
      "type": "function"
    },
    {
      "constant": true,
      "inputs": [],
      "name": "_closeAtHour",
      "outputs": [
        {
          "internalType": "uint8",
          "name": "",
          "type": "uint8"
        }
      ],
      "payable": false,
      "stateMutability": "view",
      "type": "function"
    },
    {
      "constant": true,
      "inputs": [],
      "name": "_companyId",
      "outputs": [
        {
          "internalType": "bytes32",
          "name": "",
          "type": "bytes32"
        }
      ],
      "payable": false,
      "stateMutability": "view",
      "type": "function"
    },
    {
      "constant": true,
      "inputs": [
        {
          "internalType": "uint256",
          "name": "",
          "type": "uint256"
        }
      ],
      "name": "_employeeAddrs",
      "outputs": [
        {
          "internalType": "address",
          "name": "",
          "type": "address"
        }
      ],
      "payable": false,
      "stateMutability": "view",
      "type": "function"
    },
    {
      "constant": true,
      "inputs": [],
      "name": "_openAtHour",
      "outputs": [
        {
          "internalType": "uint8",
          "name": "",
          "type": "uint8"
        }
      ],
      "payable": false,
      "stateMutability": "view",
      "type": "function"
    },
    {
      "constant": true,
      "inputs": [
        {
          "internalType": "bytes32",
          "name": "",
          "type": "bytes32"
        }
      ],
      "name": "_roomId2Room",
      "outputs": [
        {
          "internalType": "bytes32",
          "name": "roomId",
          "type": "bytes32"
        },
        {
          "internalType": "string",
          "name": "name",
          "type": "string"
        }
      ],
      "payable": false,
      "stateMutability": "view",
      "type": "function"
    },
    {
      "constant": true,
      "inputs": [
        {
          "internalType": "uint256",
          "name": "",
          "type": "uint256"
        }
      ],
      "name": "_roomIds",
      "outputs": [
        {
          "internalType": "bytes32",
          "name": "",
          "type": "bytes32"
        }
      ],
      "payable": false,
      "stateMutability": "view",
      "type": "function"
    },
    {
      "constant": true,
      "inputs": [],
      "name": "getOwner",
      "outputs": [
        {
          "internalType": "address",
          "name": "",
          "type": "address"
        }
      ],
      "payable": false,
      "stateMutability": "view",
      "type": "function"
    },
    {
      "constant": true,
      "inputs": [],
      "name": "isOwner",
      "outputs": [
        {
          "internalType": "bool",
          "name": "",
          "type": "bool"
        }
      ],
      "payable": false,
      "stateMutability": "view",
      "type": "function"
    },
    {
      "constant": true,
      "inputs": [],
      "name": "owner",
      "outputs": [
        {
          "internalType": "address",
          "name": "",
          "type": "address"
        }
      ],
      "payable": false,
      "stateMutability": "view",
      "type": "function"
    },
    {
      "constant": false,
      "inputs": [
        {
          "internalType": "address",
          "name": "_newOwner",
          "type": "address"
        }
      ],
      "name": "transferOwnership",
      "outputs": [],
      "payable": false,
      "stateMutability": "nonpayable",
      "type": "function"
    },
    {
      "constant": true,
      "inputs": [
        {
          "internalType": "uint8",
          "name": "atHour",
          "type": "uint8"
        }
      ],
      "name": "isBuildingOpen",
      "outputs": [
        {
          "internalType": "bool",
          "name": "",
          "type": "bool"
        }
      ],
      "payable": false,
      "stateMutability": "view",
      "type": "function"
    },
    {
      "constant": false,
      "inputs": [
        {
          "internalType": "bytes32",
          "name": "roomId",
          "type": "bytes32"
        },
        {
          "internalType": "string",
          "name": "name",
          "type": "string"
        }
      ],
      "name": "addRoom",
      "outputs": [],
      "payable": false,
      "stateMutability": "nonpayable",
      "type": "function"
    },
    {
      "constant": false,
      "inputs": [
        {
          "internalType": "bytes32",
          "name": "roomId",
          "type": "bytes32"
        }
      ],
      "name": "removeRoom",
      "outputs": [],
      "payable": false,
      "stateMutability": "nonpayable",
      "type": "function"
    },
    {
      "constant": true,
      "inputs": [
        {
          "internalType": "bytes32",
          "name": "rId",
          "type": "bytes32"
        }
      ],
      "name": "getRoomInfo",
      "outputs": [
        {
          "internalType": "bytes32",
          "name": "roomId",
          "type": "bytes32"
        },
        {
          "internalType": "string",
          "name": "name",
          "type": "string"
        }
      ],
      "payable": false,
      "stateMutability": "view",
      "type": "function"
    },
    {
      "constant": true,
      "inputs": [
        {
          "internalType": "bytes32",
          "name": "roomId",
          "type": "bytes32"
        }
      ],
      "name": "roomExists",
      "outputs": [
        {
          "internalType": "bool",
          "name": "",
          "type": "bool"
        }
      ],
      "payable": false,
      "stateMutability": "view",
      "type": "function"
    },
    {
      "constant": false,
      "inputs": [
        {
          "internalType": "bytes32",
          "name": "username",
          "type": "bytes32"
        },
        {
          "internalType": "address",
          "name": "addr",
          "type": "address"
        }
      ],
      "name": "addEmployee",
      "outputs": [],
      "payable": false,
      "stateMutability": "nonpayable",
      "type": "function"
    },
    {
      "constant": false,
      "inputs": [
        {
          "internalType": "address",
          "name": "addr",
          "type": "address"
        }
      ],
      "name": "removeEmployee",
      "outputs": [],
      "payable": false,
      "stateMutability": "nonpayable",
      "type": "function"
    },
    {
      "constant": true,
      "inputs": [
        {
          "internalType": "bytes32",
          "name": "username",
          "type": "bytes32"
        }
      ],
      "name": "getEmployeeAddr",
      "outputs": [
        {
          "internalType": "address",
          "name": "",
          "type": "address"
        }
      ],
      "payable": false,
      "stateMutability": "view",
      "type": "function"
    },
    {
      "constant": true,
      "inputs": [
        {
          "internalType": "address",
          "name": "addr",
          "type": "address"
        }
      ],
      "name": "getEmployeeUsername",
      "outputs": [
        {
          "internalType": "bytes32",
          "name": "",
          "type": "bytes32"
        }
      ],
      "payable": false,
      "stateMutability": "view",
      "type": "function"
    },
    {
      "constant": true,
      "inputs": [
        {
          "internalType": "address",
          "name": "addr",
          "type": "address"
        }
      ],
      "name": "employeeExists",
      "outputs": [
        {
          "internalType": "bool",
          "name": "",
          "type": "bool"
        }
      ],
      "payable": false,
      "stateMutability": "view",
      "type": "function"
    }
  ],
  "bytecode": "0x60806040523480156200001157600080fd5b506040516200196238038062001962833981810160405260808110156200003757600080fd5b8101908080519060200190929190805160405193929190846401000000008211156200006257600080fd5b838201915060208201858111156200007957600080fd5b82518660018202830111640100000000821117156200009757600080fd5b8083526020830192505050908051906020019080838360005b83811015620000cd578082015181840152602081019050620000b0565b50505050905090810190601f168015620000fb5780820380516001836020036101000a031916815260200191505b50604052602001805190602001909291908051906020019092919050505033806000806101000a81548173ffffffffffffffffffffffffffffffffffffffff021916908373ffffffffffffffffffffffffffffffffffffffff160217905550508360018190555082600290805190602001906200017a929190620001bb565b5081600360006101000a81548160ff021916908360ff16021790555080600360016101000a81548160ff021916908360ff160217905550505050506200026a565b828054600181600116156101000203166002900490600052602060002090601f016020900481019282601f10620001fe57805160ff19168380011785556200022f565b828001600101855582156200022f579182015b828111156200022e57825182559160200191906001019062000211565b5b5090506200023e919062000242565b5090565b6200026791905b808211156200026357600081600090555060010162000249565b5090565b90565b6116e8806200027a6000396000f3fe608060405234801561001057600080fd5b50600436106101375760003560e01c80638da5cb5b116100b8578063cf5934411161007c578063cf593441146106b6578063d108177a14610724578063d23ee43f14610768578063e88724fd146107b1578063f2fde38b146107f7578063fb314a921461083b57610137565b80638da5cb5b146104b35780638f32d59b146104fd578063a2b1b2551461051f578063b6437d92146105cd578063bee0c385146105f157610137565b806319d54f9e116100ff57806319d54f9e1461034e57806330e3b0831461039c5780634ea6ee75146103ba5780635eee772114610445578063893d20e81461046957610137565b80630474c0951461013c57806308aede14146101aa5780631024f2231461025857806310d0e902146102b4578063190277d9146102f6575b600080fd5b6101686004803603602081101561015257600080fd5b8101908080359060200190929190505050610869565b604051808273ffffffffffffffffffffffffffffffffffffffff1673ffffffffffffffffffffffffffffffffffffffff16815260200191505060405180910390f35b6101d6600480360360208110156101c057600080fd5b81019080803590602001909291905050506108a5565b6040518083815260200180602001828103825283818151815260200191508051906020019080838360005b8381101561021c578082015181840152602081019050610201565b50505050905090810190601f1680156102495780820380516001836020036101000a031916815260200191505b50935050505060405180910390f35b61029a6004803603602081101561026e57600080fd5b81019080803573ffffffffffffffffffffffffffffffffffffffff16906020019092919050505061097b565b604051808215151515815260200191505060405180910390f35b6102e0600480360360208110156102ca57600080fd5b8101908080359060200190929190505050610997565b6040518082815260200191505060405180910390f35b6103386004803603602081101561030c57600080fd5b81019080803573ffffffffffffffffffffffffffffffffffffffff1690602001909291905050506109b8565b6040518082815260200191505060405180910390f35b61039a6004803603604081101561036457600080fd5b8101908080359060200190929190803573ffffffffffffffffffffffffffffffffffffffff169060200190929190505050610a04565b005b6103a4610cac565b6040518082815260200191505060405180910390f35b6103fc600480360360208110156103d057600080fd5b81019080803573ffffffffffffffffffffffffffffffffffffffff169060200190929190505050610cb2565b604051808373ffffffffffffffffffffffffffffffffffffffff1673ffffffffffffffffffffffffffffffffffffffff1681526020018281526020019250505060405180910390f35b61044d610cf6565b604051808260ff1660ff16815260200191505060405180910390f35b610471610d09565b604051808273ffffffffffffffffffffffffffffffffffffffff1673ffffffffffffffffffffffffffffffffffffffff16815260200191505060405180910390f35b6104bb610d32565b604051808273ffffffffffffffffffffffffffffffffffffffff1673ffffffffffffffffffffffffffffffffffffffff16815260200191505060405180910390f35b610505610d57565b604051808215151515815260200191505060405180910390f35b61054b6004803603602081101561053557600080fd5b8101908080359060200190929190505050610dae565b6040518083815260200180602001828103825283818151815260200191508051906020019080838360005b83811015610591578082015181840152602081019050610576565b50505050905090810190601f1680156105be5780820380516001836020036101000a031916815260200191505b50935050505060405180910390f35b6105d5610e6a565b604051808260ff1660ff16815260200191505060405180910390f35b6106b46004803603604081101561060757600080fd5b81019080803590602001909291908035906020019064010000000081111561062e57600080fd5b82018360208201111561064057600080fd5b8035906020019184600183028401116401000000008311171561066257600080fd5b91908080601f016020809104026020016040519081016040528093929190818152602001838380828437600081840152601f19601f820116905080830192505050505050509192919290505050610e7d565b005b6106e2600480360360208110156106cc57600080fd5b8101908080359060200190929190505050610fd3565b604051808273ffffffffffffffffffffffffffffffffffffffff1673ffffffffffffffffffffffffffffffffffffffff16815260200191505060405180910390f35b6107666004803603602081101561073a57600080fd5b81019080803573ffffffffffffffffffffffffffffffffffffffff169060200190929190505050611093565b005b6107976004803603602081101561077e57600080fd5b81019080803560ff16906020019092919050505061123a565b604051808215151515815260200191505060405180910390f35b6107dd600480360360208110156107c757600080fd5b810190808035906020019092919050505061127c565b604051808215151515815260200191505060405180910390f35b6108396004803603602081101561080d57600080fd5b81019080803573ffffffffffffffffffffffffffffffffffffffff169060200190929190505050611298565b005b6108676004803603602081101561085157600080fd5b8101908080359060200190929190505050611326565b005b6006818154811061087657fe5b906000526020600020016000915054906101000a900473ffffffffffffffffffffffffffffffffffffffff1681565b60006060600560008481526020019081526020016000206000015460056000858152602001908152602001600020600101808054600181600116156101000203166002900480601f01602080910402602001604051908101604052809291908181526020018280546001816001161561010002031660029004801561096b5780601f106109405761010080835404028352916020019161096b565b820191906000526020600020905b81548152906001019060200180831161094e57829003601f168201915b5050505050905091509150915091565b600080600061098984611447565b915091508092505050919050565b600481815481106109a457fe5b906000526020600020016000915090505481565b6000600760008373ffffffffffffffffffffffffffffffffffffffff1673ffffffffffffffffffffffffffffffffffffffff168152602001908152602001600020600101549050919050565b610a0c610d57565b610a1557600080fd5b600073ffffffffffffffffffffffffffffffffffffffff16600760008373ffffffffffffffffffffffffffffffffffffffff1673ffffffffffffffffffffffffffffffffffffffff16815260200190815260200160002060000160009054906101000a900473ffffffffffffffffffffffffffffffffffffffff1673ffffffffffffffffffffffffffffffffffffffff1614610b19576040517f08c379a000000000000000000000000000000000000000000000000000000000815260040180806020018281038252601a8152602001807f4164647265737320697320616c726561647920696e207573652e00000000000081525060200191505060405180910390fd5b60068190806001815401808255809150509060018203906000526020600020016000909192909190916101000a81548173ffffffffffffffffffffffffffffffffffffffff021916908373ffffffffffffffffffffffffffffffffffffffff1602179055505060405180604001604052808273ffffffffffffffffffffffffffffffffffffffff16815260200183815250600760008373ffffffffffffffffffffffffffffffffffffffff1673ffffffffffffffffffffffffffffffffffffffff16815260200190815260200160002060008201518160000160006101000a81548173ffffffffffffffffffffffffffffffffffffffff021916908373ffffffffffffffffffffffffffffffffffffffff160217905550602082015181600101559050507f0866ada2f031b354aa18a796b3cadac89c35292d8768907a3515e2b11fecea5e8282604051808381526020018273ffffffffffffffffffffffffffffffffffffffff1673ffffffffffffffffffffffffffffffffffffffff1681526020019250505060405180910390a15050565b60015481565b60076020528060005260406000206000915090508060000160009054906101000a900473ffffffffffffffffffffffffffffffffffffffff16908060010154905082565b600360019054906101000a900460ff1681565b60008060009054906101000a900473ffffffffffffffffffffffffffffffffffffffff16905090565b6000809054906101000a900473ffffffffffffffffffffffffffffffffffffffff1681565b60008060009054906101000a900473ffffffffffffffffffffffffffffffffffffffff1673ffffffffffffffffffffffffffffffffffffffff163373ffffffffffffffffffffffffffffffffffffffff1614905090565b6005602052806000526040600020600091509050806000015490806001018054600181600116156101000203166002900480601f016020809104026020016040519081016040528092919081815260200182805460018160011615610100020316600290048015610e605780601f10610e3557610100808354040283529160200191610e60565b820191906000526020600020905b815481529060010190602001808311610e4357829003601f168201915b5050505050905082565b600360009054906101000a900460ff1681565b610e85610d57565b610e8e57600080fd5b6000600560008481526020019081526020016000206000015414610f1a576040517f08c379a00000000000000000000000000000000000000000000000000000000081526004018080602001828103825260198152602001807f526f6f6d496420697320616c726561647920696e207573652e0000000000000081525060200191505060405180910390fd5b600482908060018154018082558091505090600182039060005260206000200160009091929091909150555060405180604001604052808381526020018281525060056000848152602001908152602001600020600082015181600001556020820151816001019080519060200190610f94929190611591565b509050507fd4c94d141d2589b6b73d2654d948a75ddba3cd7642f01772523f0084a418ac12826040518082815260200191505060405180910390a15050565b600080600090505b600160068054905003811161108857600060068281548110610ff957fe5b9060005260206000200160009054906101000a900473ffffffffffffffffffffffffffffffffffffffff16905083600760008373ffffffffffffffffffffffffffffffffffffffff1673ffffffffffffffffffffffffffffffffffffffff16815260200190815260200160002060010154141561107a57809250505061108e565b508080600101915050610fdb565b50600090505b919050565b61109b610d57565b6110a457600080fd5b6000806110b083611447565b9150915080611127576040517f08c379a00000000000000000000000000000000000000000000000000000000081526004018080602001828103825260188152602001807f456d706c6f79656520646f6573206e6f7420657869737473000000000000000081525060200191505060405180910390fd5b60066001600680549050038154811061113c57fe5b9060005260206000200160009054906101000a900473ffffffffffffffffffffffffffffffffffffffff166006838154811061117457fe5b9060005260206000200160006101000a81548173ffffffffffffffffffffffffffffffffffffffff021916908373ffffffffffffffffffffffffffffffffffffffff16021790555060068054809190600190036111d19190611611565b507fabae6e64cb4315875c29d42347a312f5e9fce4ab564e9722b43dd78d0751135a83604051808273ffffffffffffffffffffffffffffffffffffffff1673ffffffffffffffffffffffffffffffffffffffff16815260200191505060405180910390a1505050565b6000600360009054906101000a900460ff1660ff168260ff16101580156112755750600360019054906101000a900460ff1660ff168260ff16105b9050919050565b600080600061128a84611512565b915091508092505050919050565b6112a0610d57565b6112a957600080fd5b600073ffffffffffffffffffffffffffffffffffffffff168173ffffffffffffffffffffffffffffffffffffffff1614156112e357600080fd5b806000806101000a81548173ffffffffffffffffffffffffffffffffffffffff021916908373ffffffffffffffffffffffffffffffffffffffff16021790555050565b61132e610d57565b61133757600080fd5b60008061134383611512565b91509150806113ba576040517f08c379a00000000000000000000000000000000000000000000000000000000081526004018080602001828103825260168152602001807f526f6f6d496420646f6573206e6f74206578697374730000000000000000000081525060200191505060405180910390fd5b6004600160048054905003815481106113cf57fe5b9060005260206000200154600483815481106113e757fe5b9060005260206000200181905550600480548091906001900361140a919061163d565b507f9ca9c07d7bb767d5f61a136cee40131ee9083c97365cce32d42ab1b1ac1cbd47836040518082815260200191505060405180910390a1505050565b60008060006006805490501415611467576000808191509150915061150d565b60008090505b6001600680549050038111611501578373ffffffffffffffffffffffffffffffffffffffff16600682815481106114a057fe5b9060005260206000200160009054906101000a900473ffffffffffffffffffffffffffffffffffffffff1673ffffffffffffffffffffffffffffffffffffffff1614156114f457806001925092505061150d565b808060010191505061146d565b50600080819150915091505b915091565b60008060006004805490501415611532576000808191509150915061158c565b60008090505b600160048054905003811161158057836004828154811061155557fe5b9060005260206000200154141561157357806001925092505061158c565b8080600101915050611538565b50600080819150915091505b915091565b828054600181600116156101000203166002900490600052602060002090601f016020900481019282601f106115d257805160ff1916838001178555611600565b82800160010185558215611600579182015b828111156115ff5782518255916020019190600101906115e4565b5b50905061160d9190611669565b5090565b815481835581811115611638578183600052602060002091820191016116379190611669565b5b505050565b81548183558181111561166457818360005260206000209182019101611663919061168e565b5b505050565b61168b91905b8082111561168757600081600090555060010161166f565b5090565b90565b6116b091905b808211156116ac576000816000905550600101611694565b5090565b9056fea265627a7a723158200027ed16441139b6bfc0b5160ead594b1f1b38b86d3917819ddf5e38ea8ac98f64736f6c634300050c0032",
  "source": "pragma solidity ^0.5.0;\n\nimport \"./utils/Ownable.sol\";\n\n/**\n * @title Company: This contract stores enterprise information such a available rooms and employees\n * @author Gabriel Garrido\n */\ncontract Company is Ownable {\n\n    struct Room {\n        bytes32 roomId; // Limited to 32 chars\n        string name;\n    }\n\n    struct Employee {\n        address addr;\n        bytes32 username; // Limited to 32 chars\n    }\n\n    // Company information\n    bytes32 public _companyId;\n    string _companyName;\n\n    uint8 public _openAtHour; // 24h format\n    uint8 public _closeAtHour; // 24h format\n\n    // List of room ids\n    bytes32[] public _roomIds;\n    // Map of rooms and its info\n    mapping(bytes32 => Room) public _roomId2Room;\n\n    // List of employee's addresses\n    address[] public _employeeAddrs;\n    // Map of employee's address to employee info\n    mapping(address => Employee) public _addr2Employee;\n\n    event RoomAdded(bytes32 roomId);\n    event RoomRemoved(bytes32 roomId);\n    event EmployeeAdded(bytes32 username, address addr);\n    event EmployeeRemoved(address addr);\n\n    constructor(bytes32 companyId, string memory companyName, uint8 openAtHour, uint8 closeAtHour) Ownable(msg.sender) public {\n        _companyId = companyId;\n        _companyName = companyName;\n        _openAtHour = openAtHour;\n        _closeAtHour = closeAtHour;\n    }\n\n    function isBuildingOpen(uint8 atHour) public view returns (bool) {\n        return atHour >= _openAtHour && atHour < _closeAtHour;\n    }\n\n    /*\n     * ROOM MANAGING\n    */\n    function addRoom(bytes32 roomId, string memory name) onlyOwner public {\n        require(_roomId2Room[roomId].roomId == \"\", \"RoomId is already in use.\");\n        _roomIds.push(roomId);\n        _roomId2Room[roomId] = Room({\n            roomId : roomId,\n            name : name\n            });\n\n        emit RoomAdded(roomId);\n    }\n\n    function removeRoom(bytes32 roomId) onlyOwner public {\n        (uint idx, bool exists) = _getRoomIndex(roomId);\n        if (!exists) {\n            revert(\"RoomId does not exists\");\n        }\n\n        _roomIds[idx] = _roomIds[_roomIds.length - 1];\n        _roomIds.length--;\n\n        emit RoomRemoved(roomId);\n    }\n\n    function getRoomInfo(bytes32 rId) public view returns (bytes32 roomId, string memory name) {\n        return (_roomId2Room[rId].roomId, _roomId2Room[rId].name);\n    }\n\n    function roomExists(bytes32 roomId) public view returns (bool) {\n        (uint idx, bool exists) = _getRoomIndex(roomId);\n        return exists;\n    }\n\n\n    /*\n     * EMPLOYEE MANAGING\n    */\n\n    function addEmployee(bytes32 username, address addr) onlyOwner public {\n        require(_addr2Employee[addr].addr == address(0x0), \"Address is already in use.\");\n        // @TODO: Verify username is not duplicated\n        _employeeAddrs.push(addr);\n        _addr2Employee[addr] = Employee({\n            username : username,\n            addr : addr\n            });\n\n        emit EmployeeAdded(username, addr);\n    }\n\n    function removeEmployee(address addr) onlyOwner public {\n        (uint idx, bool exists) = _getEmployeeIndex(addr);\n        if (!exists) {\n            revert(\"Employee does not exists\");\n        }\n\n        _employeeAddrs[idx] = _employeeAddrs[_employeeAddrs.length - 1];\n        _employeeAddrs.length--;\n\n        emit EmployeeRemoved(addr);\n    }\n\n    function getEmployeeAddr(bytes32 username) public view returns (address) {\n        for (uint idx = 0; idx <= _employeeAddrs.length - 1; idx++) {\n            address addr = _employeeAddrs[idx];\n            if (_addr2Employee[addr].username == username) return addr;\n        }\n\n        return address(0x0);\n    }\n\n    function getEmployeeUsername(address addr) public view returns (bytes32) {\n        return _addr2Employee[addr].username;\n    }\n\n    function employeeExists(address addr) public view returns (bool) {\n        (uint idx, bool exists) = _getEmployeeIndex(addr);\n        return exists;\n    }\n\n\n    /*\n     * HELPERS\n    */\n\n    function _getEmployeeIndex(address addr) internal view returns (uint index, bool exists) {\n        if (_employeeAddrs.length == 0) return (0, false);\n\n        for (uint idx = 0; idx <= _employeeAddrs.length - 1; idx++) {\n            if (_employeeAddrs[idx] == addr) return (idx, true);\n        }\n\n        return (0, false);\n    }\n\n    function _getRoomIndex(bytes32 roomId) internal view returns (uint index, bool exists) {\n        if(_roomIds.length == 0) return (0, false);\n\n        for (uint idx = 0; idx <= _roomIds.length - 1; idx++) {\n            if (_roomIds[idx] == roomId) return (idx, true);\n        }\n\n        return (0, false);\n    }\n}\n",
  "sourcePath": "/home/ggarrido/projects/room-booking-dapp/contracts/Company.sol",
  "compiler": {
    "name": "solc",
    "version": "0.5.12+commit.7709ece9.Emscripten.clang"
  },
  "schemaVersion": "3.0.20",
  "updatedAt": "2020-01-12T10:21:56.994Z",
  "devdoc": {
    "author": "Gabriel Garrido",
    "methods": {},
    "title": "Company: This contract stores enterprise information such a available rooms and employees"
  },
  "userdoc": {
    "methods": {}
  }
}