{
  "contractName": "RoomBooking",
  "abi": [
    {
      "inputs": [
        {
          "internalType": "contract Company",
          "name": "company",
          "type": "address"
        }
      ],
      "payable": false,
      "stateMutability": "nonpayable",
      "type": "constructor"
    },
    {
      "anonymous": false,
      "inputs": [
        {
          "indexed": false,
          "internalType": "bytes32",
          "name": "companyId",
          "type": "bytes32"
        },
        {
          "indexed": false,
          "internalType": "uint256",
          "name": "idx",
          "type": "uint256"
        }
      ],
      "name": "CompanyAdded",
      "type": "event"
    },
    {
      "anonymous": false,
      "inputs": [
        {
          "indexed": false,
          "internalType": "bytes32",
          "name": "companyId",
          "type": "bytes32"
        }
      ],
      "name": "CompanyRemoved",
      "type": "event"
    },
    {
      "anonymous": false,
      "inputs": [
        {
          "indexed": false,
          "internalType": "bytes32",
          "name": "reservationId",
          "type": "bytes32"
        },
        {
          "indexed": false,
          "internalType": "bytes32",
          "name": "companyId",
          "type": "bytes32"
        },
        {
          "indexed": false,
          "internalType": "bytes32",
          "name": "roomId",
          "type": "bytes32"
        }
      ],
      "name": "ReservationAdded",
      "type": "event"
    },
    {
      "anonymous": false,
      "inputs": [
        {
          "indexed": false,
          "internalType": "bytes32",
          "name": "reservationId",
          "type": "bytes32"
        }
      ],
      "name": "ReservationRemoved",
      "type": "event"
    },
    {
      "constant": true,
      "inputs": [
        {
          "internalType": "address",
          "name": "addr",
          "type": "address"
        }
      ],
      "name": "isAddressAdmin",
      "outputs": [
        {
          "internalType": "bool",
          "name": "",
          "type": "bool"
        }
      ],
      "payable": false,
      "stateMutability": "view",
      "type": "function"
    },
    {
      "constant": false,
      "inputs": [
        {
          "internalType": "contract Company",
          "name": "company",
          "type": "address"
        }
      ],
      "name": "appendCompany",
      "outputs": [],
      "payable": false,
      "stateMutability": "nonpayable",
      "type": "function"
    },
    {
      "constant": false,
      "inputs": [
        {
          "internalType": "bytes32",
          "name": "companyId",
          "type": "bytes32"
        }
      ],
      "name": "removeCompany",
      "outputs": [],
      "payable": false,
      "stateMutability": "nonpayable",
      "type": "function"
    },
    {
      "constant": false,
      "inputs": [
        {
          "internalType": "bytes32",
          "name": "companyId",
          "type": "bytes32"
        },
        {
          "internalType": "bytes32",
          "name": "roomId",
          "type": "bytes32"
        },
        {
          "internalType": "uint16",
          "name": "year",
          "type": "uint16"
        },
        {
          "internalType": "uint8",
          "name": "month",
          "type": "uint8"
        },
        {
          "internalType": "uint8",
          "name": "day",
          "type": "uint8"
        },
        {
          "internalType": "uint8",
          "name": "hour",
          "type": "uint8"
        }
      ],
      "name": "createReservation",
      "outputs": [],
      "payable": false,
      "stateMutability": "nonpayable",
      "type": "function"
    },
    {
      "constant": false,
      "inputs": [
        {
          "internalType": "bytes32",
          "name": "reservationId",
          "type": "bytes32"
        }
      ],
      "name": "removeReservation",
      "outputs": [],
      "payable": false,
      "stateMutability": "nonpayable",
      "type": "function"
    },
    {
      "constant": true,
      "inputs": [
        {
          "internalType": "bytes32",
          "name": "companyId",
          "type": "bytes32"
        },
        {
          "internalType": "bytes32",
          "name": "roomId",
          "type": "bytes32"
        },
        {
          "internalType": "uint16",
          "name": "year",
          "type": "uint16"
        },
        {
          "internalType": "uint8",
          "name": "month",
          "type": "uint8"
        },
        {
          "internalType": "uint8",
          "name": "day",
          "type": "uint8"
        },
        {
          "internalType": "uint8",
          "name": "hour",
          "type": "uint8"
        }
      ],
      "name": "isRoomAvailable",
      "outputs": [
        {
          "internalType": "bool",
          "name": "",
          "type": "bool"
        }
      ],
      "payable": false,
      "stateMutability": "view",
      "type": "function"
    },
    {
      "constant": true,
      "inputs": [
        {
          "internalType": "bytes32",
          "name": "rId",
          "type": "bytes32"
        }
      ],
      "name": "reservationInfo",
      "outputs": [
        {
          "internalType": "address",
          "name": "employeeAddr",
          "type": "address"
        },
        {
          "internalType": "uint16",
          "name": "year",
          "type": "uint16"
        },
        {
          "internalType": "uint8",
          "name": "month",
          "type": "uint8"
        },
        {
          "internalType": "uint8",
          "name": "day",
          "type": "uint8"
        },
        {
          "internalType": "uint8",
          "name": "hour",
          "type": "uint8"
        }
      ],
      "payable": false,
      "stateMutability": "view",
      "type": "function"
    },
    {
      "constant": true,
      "inputs": [
        {
          "internalType": "bytes32",
          "name": "companyId",
          "type": "bytes32"
        }
      ],
      "name": "companyAddress",
      "outputs": [
        {
          "internalType": "address",
          "name": "",
          "type": "address"
        }
      ],
      "payable": false,
      "stateMutability": "view",
      "type": "function"
    }
  ],
  "bytecode": "0x608060405234801561001057600080fd5b5060405161177e38038061177e8339818101604052602081101561003357600080fd5b810190808051906020019092919050505060008190806001815401808255809150509060018203906000526020600020016000909192909190916101000a81548173ffffffffffffffffffffffffffffffffffffffff021916908373ffffffffffffffffffffffffffffffffffffffff16021790555050506116c4806100ba6000396000f3fe608060405234801561001057600080fd5b50600436106100875760003560e01c806381e13d051161005b57806381e13d05146101db578063aa7f31771461027f578063c6a40894146102db578063d53d56d71461031f57610087565b806260c7781461008c5780630e80a89f146100ba578063224b5e7c14610128578063439d1751146101ad575b600080fd5b6100b8600480360360208110156100a257600080fd5b810190808035906020019092919050505061038c565b005b6100e6600480360360208110156100d057600080fd5b8101908080359060200190929190505050610530565b604051808273ffffffffffffffffffffffffffffffffffffffff1673ffffffffffffffffffffffffffffffffffffffff16815260200191505060405180910390f35b610193600480360360c081101561013e57600080fd5b810190808035906020019092919080359060200190929190803561ffff169060200190929190803560ff169060200190929190803560ff169060200190929190803560ff169060200190929190505050610674565b604051808215151515815260200191505060405180910390f35b6101d9600480360360208110156101c357600080fd5b81019080803590602001909291905050506106fa565b005b610207600480360360208110156101f157600080fd5b810190808035906020019092919050505061094e565b604051808673ffffffffffffffffffffffffffffffffffffffff1673ffffffffffffffffffffffffffffffffffffffff1681526020018561ffff1661ffff1681526020018460ff1660ff1681526020018360ff1660ff1681526020018260ff1660ff1681526020019550505050505060405180910390f35b6102c16004803603602081101561029557600080fd5b81019080803573ffffffffffffffffffffffffffffffffffffffff169060200190929190505050610a31565b604051808215151515815260200191505060405180910390f35b61031d600480360360208110156102f157600080fd5b81019080803573ffffffffffffffffffffffffffffffffffffffff169060200190929190505050610a43565b005b61038a600480360360c081101561033557600080fd5b810190808035906020019092919080359060200190929190803561ffff169060200190929190803560ff169060200190929190803560ff169060200190929190803560ff169060200190929190505050610c8d565b005b33610396816111db565b61039f57600080fd5b6000806103ab84611315565b9150915080610422576040517f08c379a00000000000000000000000000000000000000000000000000000000081526004018080602001828103825260178152602001807f436f6d70616e7920646f6573206e6f742065786973747300000000000000000081525060200191505060405180910390fd5b600080838154811061043057fe5b9060005260206000200160009054906101000a900473ffffffffffffffffffffffffffffffffffffffff16905060006001600080549050038154811061047257fe5b9060005260206000200160009054906101000a900473ffffffffffffffffffffffffffffffffffffffff16600084815481106104aa57fe5b9060005260206000200160006101000a81548173ffffffffffffffffffffffffffffffffffffffff021916908373ffffffffffffffffffffffffffffffffffffffff1602179055507fed162bee5d3d674d6df45b4203982bbc6fecc2f526e417a24e9e247020861ca4856040518082815260200191505060405180910390a15050505050565b6000806000805490501415610548576000905061066f565b60008090505b600160008054905003811161066957826000828154811061056b57fe5b9060005260206000200160009054906101000a900473ffffffffffffffffffffffffffffffffffffffff1673ffffffffffffffffffffffffffffffffffffffff166330e3b0836040518163ffffffff1660e01b815260040160206040518083038186803b1580156105db57600080fd5b505afa1580156105ef573d6000803e3d6000fd5b505050506040513d602081101561060557600080fd5b8101908080519060200190929190505050141561065c576000818154811061062957fe5b9060005260206000200160009054906101000a900473ffffffffffffffffffffffffffffffffffffffff1691505061066f565b808060010191505061054e565b50600090505b919050565b600080610685888888888888611433565b9050600073ffffffffffffffffffffffffffffffffffffffff166001600083815260200190815260200160002060010160009054906101000a900473ffffffffffffffffffffffffffffffffffffffff1673ffffffffffffffffffffffffffffffffffffffff16149150509695505050505050565b336107048161154c565b61070d57600080fd5b600073ffffffffffffffffffffffffffffffffffffffff166001600084815260200190815260200160002060010160009054906101000a900473ffffffffffffffffffffffffffffffffffffffff1673ffffffffffffffffffffffffffffffffffffffff1614156107e6576040517f08c379a00000000000000000000000000000000000000000000000000000000081526004018080602001828103825260208152602001807f5265736572766174696f6e206973206e6f7420696e207468652073797374656d81525060200191505060405180910390fd5b3373ffffffffffffffffffffffffffffffffffffffff166001600084815260200190815260200160002060010160009054906101000a900473ffffffffffffffffffffffffffffffffffffffff1673ffffffffffffffffffffffffffffffffffffffff16146108bd576040517f08c379a000000000000000000000000000000000000000000000000000000000815260040180806020018281038252601e8152602001807f43616e63656c6c6174696f6e206973206e6f7420617574686f72697a6564000081525060200191505060405180910390fd5b60006001600084815260200190815260200160002060010160006101000a81548173ffffffffffffffffffffffffffffffffffffffff021916908373ffffffffffffffffffffffffffffffffffffffff1602179055507f2dbecc657461fc451d45ea6ac0d1d97ffdcf0444484b987f4d391d4038695302826040518082815260200191505060405180910390a15050565b60008060008060006001600087815260200190815260200160002060010160009054906101000a900473ffffffffffffffffffffffffffffffffffffffff166001600088815260200190815260200160002060010160149054906101000a900461ffff166001600089815260200190815260200160002060010160169054906101000a900460ff16600160008a815260200190815260200160002060010160179054906101000a900460ff16600160008b815260200190815260200160002060010160189054906101000a900460ff169450945094509450945091939590929450565b6000610a3c826111db565b9050919050565b33610a4d816111db565b610a5657600080fd5b600080610ae28473ffffffffffffffffffffffffffffffffffffffff166330e3b0836040518163ffffffff1660e01b815260040160206040518083038186803b158015610aa257600080fd5b505afa158015610ab6573d6000803e3d6000fd5b505050506040513d6020811015610acc57600080fd5b8101908080519060200190929190505050611315565b915091508015610b5a576040517f08c379a00000000000000000000000000000000000000000000000000000000081526004018080602001828103825260198152602001807f436f6d70616e792077617320616c72656164792061646465640000000000000081525060200191505060405180910390fd5b60008490806001815401808255809150509060018203906000526020600020016000909192909190916101000a81548173ffffffffffffffffffffffffffffffffffffffff021916908373ffffffffffffffffffffffffffffffffffffffff160217905550507f8a6dc95553cb27b47efd3bedb7de10b38650e4e5abbb10f8cafdcdb6be92d8e98473ffffffffffffffffffffffffffffffffffffffff166330e3b0836040518163ffffffff1660e01b815260040160206040518083038186803b158015610c2757600080fd5b505afa158015610c3b573d6000803e3d6000fd5b505050506040513d6020811015610c5157600080fd5b8101908080519060200190929190505050600160008054905003604051808381526020018281526020019250505060405180910390a150505050565b33610c978161154c565b610ca057600080fd5b600080610cac89611315565b915091506000808381548110610cbe57fe5b9060005260206000200160009054906101000a900473ffffffffffffffffffffffffffffffffffffffff16905081610d5e576040517f08c379a00000000000000000000000000000000000000000000000000000000081526004018080602001828103825260178152602001807f436f6d70616e7920646f6573206e6f742065786973747300000000000000000081525060200191505060405180910390fd5b8073ffffffffffffffffffffffffffffffffffffffff1663e88724fd8a6040518263ffffffff1660e01b81526004018082815260200191505060206040518083038186803b158015610daf57600080fd5b505afa158015610dc3573d6000803e3d6000fd5b505050506040513d6020811015610dd957600080fd5b8101908080519060200190929190505050610e5c576040517f08c379a00000000000000000000000000000000000000000000000000000000081526004018080602001828103825260148152602001807f526f6f6d20646f6573206e6f742065786973747300000000000000000000000081525060200191505060405180910390fd5b8073ffffffffffffffffffffffffffffffffffffffff1663d23ee43f866040518263ffffffff1660e01b8152600401808260ff1660ff16815260200191505060206040518083038186803b158015610eb357600080fd5b505afa158015610ec7573d6000803e3d6000fd5b505050506040513d6020811015610edd57600080fd5b8101908080519060200190929190505050610f60576040517f08c379a00000000000000000000000000000000000000000000000000000000081526004018080602001828103825260138152602001807f436f6d70616e79206973206e6f74206f70656e0000000000000000000000000081525060200191505060405180910390fd5b6000610f708b8b8b8b8b8b611433565b9050600073ffffffffffffffffffffffffffffffffffffffff166001600083815260200190815260200160002060010160009054906101000a900473ffffffffffffffffffffffffffffffffffffffff1673ffffffffffffffffffffffffffffffffffffffff161461104a576040517f08c379a00000000000000000000000000000000000000000000000000000000081526004018080602001828103825260158152602001807f526f6f6d206973206e6f7420617661696c61626c65000000000000000000000081525060200191505060405180910390fd5b6040518060c001604052808281526020013373ffffffffffffffffffffffffffffffffffffffff1681526020018a61ffff1681526020018960ff1681526020018860ff1681526020018760ff16815250600160008381526020019081526020016000206000820151816000015560208201518160010160006101000a81548173ffffffffffffffffffffffffffffffffffffffff021916908373ffffffffffffffffffffffffffffffffffffffff16021790555060408201518160010160146101000a81548161ffff021916908361ffff16021790555060608201518160010160166101000a81548160ff021916908360ff16021790555060808201518160010160176101000a81548160ff021916908360ff16021790555060a08201518160010160186101000a81548160ff021916908360ff1602179055509050507f504287386cfbeca1002434c9787d4ab89cbef444bf0bc4de480f7a954c77a830818c8c60405180848152602001838152602001828152602001935050505060405180910390a15050505050505050505050565b60008060008054905014156111f35760009050611310565b60008090505b600160008054905003811161130a578273ffffffffffffffffffffffffffffffffffffffff166000828154811061122c57fe5b9060005260206000200160009054906101000a900473ffffffffffffffffffffffffffffffffffffffff1673ffffffffffffffffffffffffffffffffffffffff1663893d20e86040518163ffffffff1660e01b815260040160206040518083038186803b15801561129c57600080fd5b505afa1580156112b0573d6000803e3d6000fd5b505050506040513d60208110156112c657600080fd5b810190808051906020019092919050505073ffffffffffffffffffffffffffffffffffffffff1614156112fd576001915050611310565b80806001019150506111f9565b50600090505b919050565b600080600080805490501415611334576000808191509150915061142e565b60008090505b600160008054905003811161142257836000828154811061135757fe5b9060005260206000200160009054906101000a900473ffffffffffffffffffffffffffffffffffffffff1673ffffffffffffffffffffffffffffffffffffffff166330e3b0836040518163ffffffff1660e01b815260040160206040518083038186803b1580156113c757600080fd5b505afa1580156113db573d6000803e3d6000fd5b505050506040513d60208110156113f157600080fd5b8101908080519060200190929190505050141561141557806001925092505061142e565b808060010191505061133a565b50600080819150915091505b915091565b60006002878787878787604051602001808781526020018681526020018561ffff1661ffff1660f01b81526002018460ff1660ff1660f81b81526001018360ff1660ff1660f81b81526001018260ff1660ff1660f81b815260010196505050505050506040516020818303038152906040526040518082805190602001908083835b602083106114d857805182526020820191506020810190506020830392506114b5565b6001836020036101000a038019825116818451168082178552505050505050905001915050602060405180830381855afa15801561151a573d6000803e3d6000fd5b5050506040513d602081101561152f57600080fd5b810190808051906020019092919050505090509695505050505050565b6000806000805490501415611564576000905061168a565b60008090505b6001600080549050038111611684576000818154811061158657fe5b9060005260206000200160009054906101000a900473ffffffffffffffffffffffffffffffffffffffff1673ffffffffffffffffffffffffffffffffffffffff16631024f223846040518263ffffffff1660e01b8152600401808273ffffffffffffffffffffffffffffffffffffffff1673ffffffffffffffffffffffffffffffffffffffff16815260200191505060206040518083038186803b15801561162d57600080fd5b505afa158015611641573d6000803e3d6000fd5b505050506040513d602081101561165757600080fd5b81019080805190602001909291905050501561167757600191505061168a565b808060010191505061156a565b50600090505b91905056fea265627a7a723158207592af08d4c4a61d8db07442b91ab183ae9cb5f8a499e931b33e7ee739b711a864736f6c634300050c0032",
  "source": "pragma solidity ^0.5.0;\n\nimport \"./Company.sol\";\n\ncontract RoomBooking {\n\n    struct Reservation {\n        bytes32 reservationId;\n        address employeeAddr;\n        uint16 year;\n        uint8 month;\n        uint8 day;\n        uint8 hour;\n    }\n\n    modifier onlyAdmin(address addr) {\n        require(_isCompanyOwner(addr));\n        _;\n    }\n\n    // @TODO Decide if we want to include company address as employee\n    modifier onlyEmployees(address addr) {\n        require(_isCompanyEmployee(addr));\n        _;\n    }\n\n    // List of companies included in the booking engine\n    Company[] _companies;\n\n    // List of reservations in the system\n    mapping(bytes32 => Reservation) _reservations;\n\n\n    event CompanyAdded(bytes32 companyId, uint idx);\n    event CompanyRemoved(bytes32 companyId);\n    event ReservationAdded(bytes32 reservationId, bytes32 companyId, bytes32 roomId);\n    event ReservationRemoved(bytes32 reservationId);\n\n    constructor(Company company) public {\n        _companies.push(company);\n    }\n\n    function isAddressAdmin(address addr) public view returns (bool) {\n        return _isCompanyOwner(addr);\n    }\n\n    /*\n     * COMPANIES MANAGING\n    */\n\n    function appendCompany(Company company) onlyAdmin(msg.sender) public {\n        (uint idx, bool exists) = _getCompanyIndex(company._companyId());\n        if (exists) {\n            revert(\"Company was already added\");\n        }\n\n        _companies.push(company);\n        emit CompanyAdded(company._companyId(), _companies.length -1);\n    }\n\n    function removeCompany(bytes32 companyId) onlyAdmin(msg.sender) public {\n        (uint idx, bool exists) = _getCompanyIndex(companyId);\n\n        if (!exists) {\n            revert(\"Company does not exists\");\n        }\n\n        Company company = _companies[idx];\n        _companies[idx] = _companies[_companies.length - 1];\n        emit CompanyRemoved(companyId);\n    }\n\n    /*\n     * ROOM BOOKING\n    */\n\n    function createReservation(bytes32 companyId, bytes32 roomId, uint16 year, uint8 month, uint8 day, uint8 hour)\n    onlyEmployees(msg.sender) public {\n        (uint companyIdx, bool exists) = _getCompanyIndex(companyId);\n\n        Company company = Company(_companies[companyIdx]);\n        require(exists, \"Company does not exists\");\n        require(company.roomExists(roomId), \"Room does not exists\");\n        require(company.isBuildingOpen(hour), \"Company is not open\");\n\n        bytes32 reservationId = _reservationMapKey(companyId, roomId, year, month, day, hour);\n\n        if(_reservations[reservationId].employeeAddr != address(0x0)) revert(\"Room is not available\");\n\n        _reservations[reservationId] = Reservation({\n            reservationId : reservationId,\n            employeeAddr : msg.sender,\n            year : year,\n            month : month,\n            day : day,\n            hour : hour\n            });\n\n        emit ReservationAdded(reservationId, companyId, roomId);\n    }\n\n\n    function removeReservation(bytes32 reservationId) onlyEmployees(msg.sender) public {\n        require(_reservations[reservationId].employeeAddr != address(0x0), \"Reservation is not in the system\");\n        require(_reservations[reservationId].employeeAddr == msg.sender, \"Cancellation is not authorized\");\n        _reservations[reservationId].employeeAddr = address(0x0);\n        emit ReservationRemoved(reservationId);\n    }\n\n    function isRoomAvailable(bytes32 companyId, bytes32 roomId, uint16 year, uint8 month, uint8 day, uint8 hour)\n    public view returns (bool) {\n        bytes32 reservationId = _reservationMapKey(companyId, roomId, year, month, day, hour);\n        return _reservations[reservationId].employeeAddr == address(0x0);\n    }\n\n    function reservationInfo(bytes32 rId) public view\n    returns (address employeeAddr, uint16 year, uint8 month, uint8 day, uint8 hour) {\n        return (\n        _reservations[rId].employeeAddr,\n        _reservations[rId].year,\n        _reservations[rId].month,\n        _reservations[rId].day,\n        _reservations[rId].hour\n        );\n    }\n\n    function companyAddress(bytes32 companyId) public view returns (address) {\n        if (_companies.length == 0) return address(0x0);\n\n        for (uint idx = 0; idx <= _companies.length - 1; idx++) {\n            if (_companies[idx]._companyId() == companyId) return address(_companies[idx]);\n        }\n\n        return address(0x0);\n    }\n\n\n    /*\n     * HELPERS\n    */\n\n    function _isCompanyOwner(address addr) internal view returns (bool) {\n        if (_companies.length == 0) return false;\n\n        for (uint idx = 0; idx <= _companies.length - 1; idx++) {\n            if (_companies[idx].getOwner() == addr) return true;\n        }\n        return false;\n    }\n\n    function _getCompanyIndex(bytes32 companyId) internal view returns (uint index, bool exists) {\n        if (_companies.length == 0) return (0, false);\n\n        for (uint idx = 0; idx <= _companies.length - 1; idx++) {\n            if (_companies[idx]._companyId() == companyId) return (idx, true);\n        }\n\n        return (0, false);\n    }\n\n    function _isCompanyEmployee(address addr) internal view returns (bool) {\n        if (_companies.length == 0) return false;\n\n        for (uint idx = 0; idx <= _companies.length - 1; idx++) {\n            if (_companies[idx].employeeExists(addr)) return true;\n        }\n        return false;\n    }\n\n    function _reservationMapKey(bytes32 companyId, bytes32 roomId, uint16 year, uint8 month, uint8 day, uint8 hour)\n    internal view returns (bytes32) {\n        return sha256(abi.encodePacked(companyId, roomId, year, month, day, hour));\n    }\n}\n",
  "sourcePath": "/home/ggarrido/projects/room-booking-dapp/contracts/RoomBooking.sol",
  "compiler": {
    "name": "solc",
    "version": "0.5.12+commit.7709ece9.Emscripten.clang"
  },
  "schemaVersion": "3.0.20",
  "updatedAt": "2020-01-12T10:21:57.006Z",
  "devdoc": {
    "methods": {}
  },
  "userdoc": {
    "methods": {}
  }
}