{
  "contractName": "RoomBooking",
  "abi": [
    {
      "inputs": [
        {
          "internalType": "contract Company",
          "name": "company",
          "type": "address"
        }
      ],
      "payable": false,
      "stateMutability": "nonpayable",
      "type": "constructor"
    },
    {
      "anonymous": false,
      "inputs": [
        {
          "indexed": false,
          "internalType": "bytes32",
          "name": "companyId",
          "type": "bytes32"
        },
        {
          "indexed": false,
          "internalType": "uint256",
          "name": "idx",
          "type": "uint256"
        }
      ],
      "name": "CompanyAdded",
      "type": "event"
    },
    {
      "anonymous": false,
      "inputs": [
        {
          "indexed": false,
          "internalType": "bytes32",
          "name": "companyId",
          "type": "bytes32"
        }
      ],
      "name": "CompanyRemoved",
      "type": "event"
    },
    {
      "anonymous": false,
      "inputs": [
        {
          "indexed": false,
          "internalType": "bytes32",
          "name": "reservationId",
          "type": "bytes32"
        },
        {
          "indexed": false,
          "internalType": "bytes32",
          "name": "companyId",
          "type": "bytes32"
        },
        {
          "indexed": false,
          "internalType": "bytes32",
          "name": "roomId",
          "type": "bytes32"
        }
      ],
      "name": "ReservationAdded",
      "type": "event"
    },
    {
      "anonymous": false,
      "inputs": [
        {
          "indexed": false,
          "internalType": "bytes32",
          "name": "reservationId",
          "type": "bytes32"
        }
      ],
      "name": "ReservationRemoved",
      "type": "event"
    },
    {
      "constant": true,
      "inputs": [
        {
          "internalType": "address",
          "name": "addr",
          "type": "address"
        }
      ],
      "name": "isAddressAdmin",
      "outputs": [
        {
          "internalType": "bool",
          "name": "",
          "type": "bool"
        }
      ],
      "payable": false,
      "stateMutability": "view",
      "type": "function"
    },
    {
      "constant": true,
      "inputs": [
        {
          "internalType": "address",
          "name": "addr",
          "type": "address"
        }
      ],
      "name": "isAddressEmployee",
      "outputs": [
        {
          "internalType": "bool",
          "name": "",
          "type": "bool"
        }
      ],
      "payable": false,
      "stateMutability": "view",
      "type": "function"
    },
    {
      "constant": false,
      "inputs": [
        {
          "internalType": "contract Company",
          "name": "company",
          "type": "address"
        }
      ],
      "name": "appendCompany",
      "outputs": [],
      "payable": false,
      "stateMutability": "nonpayable",
      "type": "function"
    },
    {
      "constant": false,
      "inputs": [
        {
          "internalType": "bytes32",
          "name": "companyId",
          "type": "bytes32"
        }
      ],
      "name": "removeCompany",
      "outputs": [],
      "payable": false,
      "stateMutability": "nonpayable",
      "type": "function"
    },
    {
      "constant": false,
      "inputs": [
        {
          "internalType": "bytes32",
          "name": "companyId",
          "type": "bytes32"
        },
        {
          "internalType": "bytes32",
          "name": "roomId",
          "type": "bytes32"
        },
        {
          "internalType": "uint16",
          "name": "year",
          "type": "uint16"
        },
        {
          "internalType": "uint8",
          "name": "month",
          "type": "uint8"
        },
        {
          "internalType": "uint8",
          "name": "day",
          "type": "uint8"
        },
        {
          "internalType": "uint8",
          "name": "hour",
          "type": "uint8"
        }
      ],
      "name": "createReservation",
      "outputs": [],
      "payable": false,
      "stateMutability": "nonpayable",
      "type": "function"
    },
    {
      "constant": false,
      "inputs": [
        {
          "internalType": "bytes32",
          "name": "reservationId",
          "type": "bytes32"
        }
      ],
      "name": "removeReservation",
      "outputs": [],
      "payable": false,
      "stateMutability": "nonpayable",
      "type": "function"
    },
    {
      "constant": true,
      "inputs": [
        {
          "internalType": "bytes32",
          "name": "companyId",
          "type": "bytes32"
        },
        {
          "internalType": "bytes32",
          "name": "roomId",
          "type": "bytes32"
        },
        {
          "internalType": "uint16",
          "name": "year",
          "type": "uint16"
        },
        {
          "internalType": "uint8",
          "name": "month",
          "type": "uint8"
        },
        {
          "internalType": "uint8",
          "name": "day",
          "type": "uint8"
        },
        {
          "internalType": "uint8",
          "name": "hour",
          "type": "uint8"
        }
      ],
      "name": "isRoomAvailable",
      "outputs": [
        {
          "internalType": "bool",
          "name": "",
          "type": "bool"
        }
      ],
      "payable": false,
      "stateMutability": "view",
      "type": "function"
    },
    {
      "constant": true,
      "inputs": [
        {
          "internalType": "bytes32",
          "name": "rId",
          "type": "bytes32"
        }
      ],
      "name": "reservationInfo",
      "outputs": [
        {
          "internalType": "address",
          "name": "employeeAddr",
          "type": "address"
        },
        {
          "internalType": "bytes32",
          "name": "companyId",
          "type": "bytes32"
        },
        {
          "internalType": "bytes32",
          "name": "roomId",
          "type": "bytes32"
        },
        {
          "internalType": "uint16",
          "name": "year",
          "type": "uint16"
        },
        {
          "internalType": "uint8",
          "name": "month",
          "type": "uint8"
        },
        {
          "internalType": "uint8",
          "name": "day",
          "type": "uint8"
        },
        {
          "internalType": "uint8",
          "name": "hour",
          "type": "uint8"
        }
      ],
      "payable": false,
      "stateMutability": "view",
      "type": "function"
    },
    {
      "constant": true,
      "inputs": [
        {
          "internalType": "bytes32",
          "name": "companyId",
          "type": "bytes32"
        }
      ],
      "name": "companyAddress",
      "outputs": [
        {
          "internalType": "address",
          "name": "",
          "type": "address"
        }
      ],
      "payable": false,
      "stateMutability": "view",
      "type": "function"
    }
  ],
  "bytecode": "0x608060405234801561001057600080fd5b5060405161185d38038061185d8339818101604052602081101561003357600080fd5b810190808051906020019092919050505060008190806001815401808255809150509060018203906000526020600020016000909192909190916101000a81548173ffffffffffffffffffffffffffffffffffffffff021916908373ffffffffffffffffffffffffffffffffffffffff16021790555050506117a3806100ba6000396000f3fe608060405234801561001057600080fd5b50600436106100925760003560e01c806381e13d051161006657806381e13d05146101e6578063aa7f317714610298578063c59dedcf146102f4578063c6a4089414610350578063d53d56d71461039457610092565b806260c778146100975780630e80a89f146100c5578063224b5e7c14610133578063439d1751146101b8575b600080fd5b6100c3600480360360208110156100ad57600080fd5b8101908080359060200190929190505050610401565b005b6100f1600480360360208110156100db57600080fd5b81019080803590602001909291905050506105a5565b604051808273ffffffffffffffffffffffffffffffffffffffff1673ffffffffffffffffffffffffffffffffffffffff16815260200191505060405180910390f35b61019e600480360360c081101561014957600080fd5b810190808035906020019092919080359060200190929190803561ffff169060200190929190803560ff169060200190929190803560ff169060200190929190803560ff1690602001909291905050506106e9565b604051808215151515815260200191505060405180910390f35b6101e4600480360360208110156101ce57600080fd5b810190808035906020019092919050505061076f565b005b610212600480360360208110156101fc57600080fd5b81019080803590602001909291905050506109c3565b604051808873ffffffffffffffffffffffffffffffffffffffff1673ffffffffffffffffffffffffffffffffffffffff1681526020018781526020018681526020018561ffff1661ffff1681526020018460ff1660ff1681526020018360ff1660ff1681526020018260ff1660ff16815260200197505050505050505060405180910390f35b6102da600480360360208110156102ae57600080fd5b81019080803573ffffffffffffffffffffffffffffffffffffffff169060200190929190505050610add565b604051808215151515815260200191505060405180910390f35b6103366004803603602081101561030a57600080fd5b81019080803573ffffffffffffffffffffffffffffffffffffffff169060200190929190505050610aef565b604051808215151515815260200191505060405180910390f35b6103926004803603602081101561036657600080fd5b81019080803573ffffffffffffffffffffffffffffffffffffffff169060200190929190505050610b01565b005b6103ff600480360360c08110156103aa57600080fd5b810190808035906020019092919080359060200190929190803561ffff169060200190929190803560ff169060200190929190803560ff169060200190929190803560ff169060200190929190505050610d4b565b005b3361040b816112ba565b61041457600080fd5b600080610420846113f4565b9150915080610497576040517f08c379a00000000000000000000000000000000000000000000000000000000081526004018080602001828103825260178152602001807f436f6d70616e7920646f6573206e6f742065786973747300000000000000000081525060200191505060405180910390fd5b60008083815481106104a557fe5b9060005260206000200160009054906101000a900473ffffffffffffffffffffffffffffffffffffffff1690506000600160008054905003815481106104e757fe5b9060005260206000200160009054906101000a900473ffffffffffffffffffffffffffffffffffffffff166000848154811061051f57fe5b9060005260206000200160006101000a81548173ffffffffffffffffffffffffffffffffffffffff021916908373ffffffffffffffffffffffffffffffffffffffff1602179055507fed162bee5d3d674d6df45b4203982bbc6fecc2f526e417a24e9e247020861ca4856040518082815260200191505060405180910390a15050505050565b60008060008054905014156105bd57600090506106e4565b60008090505b60016000805490500381116106de5782600082815481106105e057fe5b9060005260206000200160009054906101000a900473ffffffffffffffffffffffffffffffffffffffff1673ffffffffffffffffffffffffffffffffffffffff166330e3b0836040518163ffffffff1660e01b815260040160206040518083038186803b15801561065057600080fd5b505afa158015610664573d6000803e3d6000fd5b505050506040513d602081101561067a57600080fd5b810190808051906020019092919050505014156106d1576000818154811061069e57fe5b9060005260206000200160009054906101000a900473ffffffffffffffffffffffffffffffffffffffff169150506106e4565b80806001019150506105c3565b50600090505b919050565b6000806106fa888888888888611512565b9050600073ffffffffffffffffffffffffffffffffffffffff166001600083815260200190815260200160002060030160009054906101000a900473ffffffffffffffffffffffffffffffffffffffff1673ffffffffffffffffffffffffffffffffffffffff16149150509695505050505050565b336107798161162b565b61078257600080fd5b600073ffffffffffffffffffffffffffffffffffffffff166001600084815260200190815260200160002060030160009054906101000a900473ffffffffffffffffffffffffffffffffffffffff1673ffffffffffffffffffffffffffffffffffffffff16141561085b576040517f08c379a00000000000000000000000000000000000000000000000000000000081526004018080602001828103825260208152602001807f5265736572766174696f6e206973206e6f7420696e207468652073797374656d81525060200191505060405180910390fd5b3373ffffffffffffffffffffffffffffffffffffffff166001600084815260200190815260200160002060030160009054906101000a900473ffffffffffffffffffffffffffffffffffffffff1673ffffffffffffffffffffffffffffffffffffffff1614610932576040517f08c379a000000000000000000000000000000000000000000000000000000000815260040180806020018281038252601e8152602001807f43616e63656c6c6174696f6e206973206e6f7420617574686f72697a6564000081525060200191505060405180910390fd5b60006001600084815260200190815260200160002060030160006101000a81548173ffffffffffffffffffffffffffffffffffffffff021916908373ffffffffffffffffffffffffffffffffffffffff1602179055507f2dbecc657461fc451d45ea6ac0d1d97ffdcf0444484b987f4d391d4038695302826040518082815260200191505060405180910390a15050565b60008060008060008060006001600089815260200190815260200160002060030160009054906101000a900473ffffffffffffffffffffffffffffffffffffffff16600160008a815260200190815260200160002060010154600160008b815260200190815260200160002060020154600160008c815260200190815260200160002060030160149054906101000a900461ffff16600160008d815260200190815260200160002060030160169054906101000a900460ff16600160008e815260200190815260200160002060030160179054906101000a900460ff16600160008f815260200190815260200160002060030160189054906101000a900460ff169650965096509650965096509650919395979092949650565b6000610ae8826112ba565b9050919050565b6000610afa8261162b565b9050919050565b33610b0b816112ba565b610b1457600080fd5b600080610ba08473ffffffffffffffffffffffffffffffffffffffff166330e3b0836040518163ffffffff1660e01b815260040160206040518083038186803b158015610b6057600080fd5b505afa158015610b74573d6000803e3d6000fd5b505050506040513d6020811015610b8a57600080fd5b81019080805190602001909291905050506113f4565b915091508015610c18576040517f08c379a00000000000000000000000000000000000000000000000000000000081526004018080602001828103825260198152602001807f436f6d70616e792077617320616c72656164792061646465640000000000000081525060200191505060405180910390fd5b60008490806001815401808255809150509060018203906000526020600020016000909192909190916101000a81548173ffffffffffffffffffffffffffffffffffffffff021916908373ffffffffffffffffffffffffffffffffffffffff160217905550507f8a6dc95553cb27b47efd3bedb7de10b38650e4e5abbb10f8cafdcdb6be92d8e98473ffffffffffffffffffffffffffffffffffffffff166330e3b0836040518163ffffffff1660e01b815260040160206040518083038186803b158015610ce557600080fd5b505afa158015610cf9573d6000803e3d6000fd5b505050506040513d6020811015610d0f57600080fd5b8101908080519060200190929190505050600160008054905003604051808381526020018281526020019250505060405180910390a150505050565b33610d558161162b565b610d5e57600080fd5b600080610d6a896113f4565b915091506000808381548110610d7c57fe5b9060005260206000200160009054906101000a900473ffffffffffffffffffffffffffffffffffffffff16905081610e1c576040517f08c379a00000000000000000000000000000000000000000000000000000000081526004018080602001828103825260178152602001807f436f6d70616e7920646f6573206e6f742065786973747300000000000000000081525060200191505060405180910390fd5b8073ffffffffffffffffffffffffffffffffffffffff1663e88724fd8a6040518263ffffffff1660e01b81526004018082815260200191505060206040518083038186803b158015610e6d57600080fd5b505afa158015610e81573d6000803e3d6000fd5b505050506040513d6020811015610e9757600080fd5b8101908080519060200190929190505050610f1a576040517f08c379a00000000000000000000000000000000000000000000000000000000081526004018080602001828103825260148152602001807f526f6f6d20646f6573206e6f742065786973747300000000000000000000000081525060200191505060405180910390fd5b8073ffffffffffffffffffffffffffffffffffffffff1663d23ee43f866040518263ffffffff1660e01b8152600401808260ff1660ff16815260200191505060206040518083038186803b158015610f7157600080fd5b505afa158015610f85573d6000803e3d6000fd5b505050506040513d6020811015610f9b57600080fd5b810190808051906020019092919050505061101e576040517f08c379a00000000000000000000000000000000000000000000000000000000081526004018080602001828103825260138152602001807f436f6d70616e79206973206e6f74206f70656e0000000000000000000000000081525060200191505060405180910390fd5b600061102e8b8b8b8b8b8b611512565b9050600073ffffffffffffffffffffffffffffffffffffffff166001600083815260200190815260200160002060030160009054906101000a900473ffffffffffffffffffffffffffffffffffffffff1673ffffffffffffffffffffffffffffffffffffffff1614611108576040517f08c379a00000000000000000000000000000000000000000000000000000000081526004018080602001828103825260158152602001807f526f6f6d206973206e6f7420617661696c61626c65000000000000000000000081525060200191505060405180910390fd5b6040518061010001604052808281526020018c81526020018b81526020013373ffffffffffffffffffffffffffffffffffffffff1681526020018a61ffff1681526020018960ff1681526020018860ff1681526020018760ff168152506001600083815260200190815260200160002060008201518160000155602082015181600101556040820151816002015560608201518160030160006101000a81548173ffffffffffffffffffffffffffffffffffffffff021916908373ffffffffffffffffffffffffffffffffffffffff16021790555060808201518160030160146101000a81548161ffff021916908361ffff16021790555060a08201518160030160166101000a81548160ff021916908360ff16021790555060c08201518160030160176101000a81548160ff021916908360ff16021790555060e08201518160030160186101000a81548160ff021916908360ff1602179055509050507f504287386cfbeca1002434c9787d4ab89cbef444bf0bc4de480f7a954c77a830818c8c60405180848152602001838152602001828152602001935050505060405180910390a15050505050505050505050565b60008060008054905014156112d257600090506113ef565b60008090505b60016000805490500381116113e9578273ffffffffffffffffffffffffffffffffffffffff166000828154811061130b57fe5b9060005260206000200160009054906101000a900473ffffffffffffffffffffffffffffffffffffffff1673ffffffffffffffffffffffffffffffffffffffff1663893d20e86040518163ffffffff1660e01b815260040160206040518083038186803b15801561137b57600080fd5b505afa15801561138f573d6000803e3d6000fd5b505050506040513d60208110156113a557600080fd5b810190808051906020019092919050505073ffffffffffffffffffffffffffffffffffffffff1614156113dc5760019150506113ef565b80806001019150506112d8565b50600090505b919050565b600080600080805490501415611413576000808191509150915061150d565b60008090505b600160008054905003811161150157836000828154811061143657fe5b9060005260206000200160009054906101000a900473ffffffffffffffffffffffffffffffffffffffff1673ffffffffffffffffffffffffffffffffffffffff166330e3b0836040518163ffffffff1660e01b815260040160206040518083038186803b1580156114a657600080fd5b505afa1580156114ba573d6000803e3d6000fd5b505050506040513d60208110156114d057600080fd5b810190808051906020019092919050505014156114f457806001925092505061150d565b8080600101915050611419565b50600080819150915091505b915091565b60006002878787878787604051602001808781526020018681526020018561ffff1661ffff1660f01b81526002018460ff1660ff1660f81b81526001018360ff1660ff1660f81b81526001018260ff1660ff1660f81b815260010196505050505050506040516020818303038152906040526040518082805190602001908083835b602083106115b75780518252602082019150602081019050602083039250611594565b6001836020036101000a038019825116818451168082178552505050505050905001915050602060405180830381855afa1580156115f9573d6000803e3d6000fd5b5050506040513d602081101561160e57600080fd5b810190808051906020019092919050505090509695505050505050565b60008060008054905014156116435760009050611769565b60008090505b6001600080549050038111611763576000818154811061166557fe5b9060005260206000200160009054906101000a900473ffffffffffffffffffffffffffffffffffffffff1673ffffffffffffffffffffffffffffffffffffffff16631024f223846040518263ffffffff1660e01b8152600401808273ffffffffffffffffffffffffffffffffffffffff1673ffffffffffffffffffffffffffffffffffffffff16815260200191505060206040518083038186803b15801561170c57600080fd5b505afa158015611720573d6000803e3d6000fd5b505050506040513d602081101561173657600080fd5b810190808051906020019092919050505015611756576001915050611769565b8080600101915050611649565b50600090505b91905056fea265627a7a72315820810813326b21aa32e29f652e0d14743adb43118b1dd38184de7af7ae1d987b8a64736f6c634300050c0032",
  "source": "pragma solidity ^0.5.0;\n\nimport \"./Company.sol\";\n\ncontract RoomBooking {\n\n    struct Reservation {\n        bytes32 reservationId;\n        bytes32 companyId;\n        bytes32 roomId;\n        address employeeAddr;\n        uint16 year;\n        uint8 month;\n        uint8 day;\n        uint8 hour;\n    }\n\n    modifier onlyAdmin(address addr) {\n        require(_isCompanyOwner(addr));\n        _;\n    }\n\n    // @TODO Decide if we want to include company address as employee\n    modifier onlyEmployees(address addr) {\n        require(_isCompanyEmployee(addr));\n        _;\n    }\n\n    // List of companies included in the booking engine\n    Company[] _companies;\n\n    // List of reservations in the system\n    mapping(bytes32 => Reservation) _reservations;\n\n\n    event CompanyAdded(bytes32 companyId, uint idx);\n    event CompanyRemoved(bytes32 companyId);\n    event ReservationAdded(bytes32 reservationId, bytes32 companyId, bytes32 roomId);\n    event ReservationRemoved(bytes32 reservationId);\n\n    constructor(Company company) public {\n        _companies.push(company);\n    }\n\n    function isAddressAdmin(address addr) public view returns (bool) {\n        return _isCompanyOwner(addr);\n    }\n\n    function isAddressEmployee(address addr) public view returns (bool) {\n        return _isCompanyEmployee(addr);\n    }\n\n    /*\n     * COMPANIES MANAGING\n    */\n\n    function appendCompany(Company company) onlyAdmin(msg.sender) public {\n        (uint idx, bool exists) = _getCompanyIndex(company._companyId());\n        if (exists) {\n            revert(\"Company was already added\");\n        }\n\n        _companies.push(company);\n        emit CompanyAdded(company._companyId(), _companies.length -1);\n    }\n\n    function removeCompany(bytes32 companyId) onlyAdmin(msg.sender) public {\n        (uint idx, bool exists) = _getCompanyIndex(companyId);\n\n        if (!exists) {\n            revert(\"Company does not exists\");\n        }\n\n        Company company = _companies[idx];\n        _companies[idx] = _companies[_companies.length - 1];\n        emit CompanyRemoved(companyId);\n    }\n\n    /*\n     * ROOM BOOKING\n    */\n\n    function createReservation(bytes32 companyId, bytes32 roomId, uint16 year, uint8 month, uint8 day, uint8 hour)\n    onlyEmployees(msg.sender) public {\n        (uint companyIdx, bool exists) = _getCompanyIndex(companyId);\n\n        Company company = Company(_companies[companyIdx]);\n        require(exists, \"Company does not exists\");\n        require(company.roomExists(roomId), \"Room does not exists\");\n        require(company.isBuildingOpen(hour), \"Company is not open\");\n\n        bytes32 reservationId = _reservationMapKey(companyId, roomId, year, month, day, hour);\n\n        if(_reservations[reservationId].employeeAddr != address(0x0)) revert(\"Room is not available\");\n\n        _reservations[reservationId] = Reservation({\n            reservationId : reservationId,\n            companyId: companyId,\n            roomId: roomId,\n            employeeAddr : msg.sender,\n            year : year,\n            month : month,\n            day : day,\n            hour : hour\n            });\n\n        emit ReservationAdded(reservationId, companyId, roomId);\n    }\n\n\n    function removeReservation(bytes32 reservationId) onlyEmployees(msg.sender) public {\n        require(_reservations[reservationId].employeeAddr != address(0x0), \"Reservation is not in the system\");\n        require(_reservations[reservationId].employeeAddr == msg.sender, \"Cancellation is not authorized\");\n        _reservations[reservationId].employeeAddr = address(0x0);\n        emit ReservationRemoved(reservationId);\n    }\n\n    function isRoomAvailable(bytes32 companyId, bytes32 roomId, uint16 year, uint8 month, uint8 day, uint8 hour)\n    public view returns (bool) {\n        bytes32 reservationId = _reservationMapKey(companyId, roomId, year, month, day, hour);\n        return _reservations[reservationId].employeeAddr == address(0x0);\n    }\n\n    function reservationInfo(bytes32 rId) public view\n    returns (address employeeAddr, bytes32 companyId, bytes32 roomId, uint16 year, uint8 month, uint8 day, uint8 hour) {\n        return (\n        _reservations[rId].employeeAddr,\n        _reservations[rId].companyId,\n        _reservations[rId].roomId,\n        _reservations[rId].year,\n        _reservations[rId].month,\n        _reservations[rId].day,\n        _reservations[rId].hour\n        );\n    }\n\n    function companyAddress(bytes32 companyId) public view returns (address) {\n        if (_companies.length == 0) return address(0x0);\n\n        for (uint idx = 0; idx <= _companies.length - 1; idx++) {\n            if (_companies[idx]._companyId() == companyId) return address(_companies[idx]);\n        }\n\n        return address(0x0);\n    }\n\n\n    /*\n     * HELPERS\n    */\n\n    function _isCompanyOwner(address addr) internal view returns (bool) {\n        if (_companies.length == 0) return false;\n\n        for (uint idx = 0; idx <= _companies.length - 1; idx++) {\n            if (_companies[idx].getOwner() == addr) return true;\n        }\n        return false;\n    }\n\n    function _getCompanyIndex(bytes32 companyId) internal view returns (uint index, bool exists) {\n        if (_companies.length == 0) return (0, false);\n\n        for (uint idx = 0; idx <= _companies.length - 1; idx++) {\n            if (_companies[idx]._companyId() == companyId) return (idx, true);\n        }\n\n        return (0, false);\n    }\n\n    function _isCompanyEmployee(address addr) internal view returns (bool) {\n        if (_companies.length == 0) return false;\n\n        for (uint idx = 0; idx <= _companies.length - 1; idx++) {\n            if (_companies[idx].employeeExists(addr)) return true;\n        }\n        return false;\n    }\n\n    function _reservationMapKey(bytes32 companyId, bytes32 roomId, uint16 year, uint8 month, uint8 day, uint8 hour)\n    internal view returns (bytes32) {\n        return sha256(abi.encodePacked(companyId, roomId, year, month, day, hour));\n    }\n}\n",
  "sourcePath": "/home/ggarrido/projects/room-booking-dapp/contracts/RoomBooking.sol",
  "compiler": {
    "name": "solc",
    "version": "0.5.12+commit.7709ece9.Emscripten.clang"
  },
  "schemaVersion": "3.0.20",
  "updatedAt": "2020-01-13T10:11:23.221Z",
  "devdoc": {
    "methods": {}
  },
  "userdoc": {
    "methods": {}
  }
}