{
  "contractName": "RoomBooking",
  "abi": [
    {
      "inputs": [
        {
          "internalType": "contract Company",
          "name": "company",
          "type": "address"
        }
      ],
      "payable": false,
      "stateMutability": "nonpayable",
      "type": "constructor"
    },
    {
      "anonymous": false,
      "inputs": [
        {
          "indexed": false,
          "internalType": "bytes32",
          "name": "companyId",
          "type": "bytes32"
        }
      ],
      "name": "CompanyAdded",
      "type": "event"
    },
    {
      "anonymous": false,
      "inputs": [
        {
          "indexed": false,
          "internalType": "bytes32",
          "name": "companyId",
          "type": "bytes32"
        }
      ],
      "name": "CompanyRemoved",
      "type": "event"
    },
    {
      "anonymous": false,
      "inputs": [
        {
          "indexed": false,
          "internalType": "bytes32",
          "name": "reservationId",
          "type": "bytes32"
        },
        {
          "indexed": false,
          "internalType": "bytes32",
          "name": "companyId",
          "type": "bytes32"
        },
        {
          "indexed": false,
          "internalType": "bytes32",
          "name": "roomId",
          "type": "bytes32"
        }
      ],
      "name": "ReservationAdded",
      "type": "event"
    },
    {
      "anonymous": false,
      "inputs": [
        {
          "indexed": false,
          "internalType": "bytes32",
          "name": "reservationId",
          "type": "bytes32"
        }
      ],
      "name": "ReservationRemoved",
      "type": "event"
    },
    {
      "constant": false,
      "inputs": [
        {
          "internalType": "contract Company",
          "name": "company",
          "type": "address"
        }
      ],
      "name": "appendCompany",
      "outputs": [],
      "payable": false,
      "stateMutability": "nonpayable",
      "type": "function"
    },
    {
      "constant": false,
      "inputs": [
        {
          "internalType": "bytes32",
          "name": "companyId",
          "type": "bytes32"
        }
      ],
      "name": "removeCompany",
      "outputs": [],
      "payable": false,
      "stateMutability": "nonpayable",
      "type": "function"
    },
    {
      "constant": false,
      "inputs": [
        {
          "internalType": "bytes32",
          "name": "companyId",
          "type": "bytes32"
        },
        {
          "internalType": "bytes32",
          "name": "roomId",
          "type": "bytes32"
        },
        {
          "internalType": "uint8",
          "name": "year",
          "type": "uint8"
        },
        {
          "internalType": "uint8",
          "name": "month",
          "type": "uint8"
        },
        {
          "internalType": "uint8",
          "name": "day",
          "type": "uint8"
        },
        {
          "internalType": "uint8",
          "name": "hour",
          "type": "uint8"
        }
      ],
      "name": "createReservation",
      "outputs": [
        {
          "internalType": "bytes32",
          "name": "",
          "type": "bytes32"
        }
      ],
      "payable": false,
      "stateMutability": "nonpayable",
      "type": "function"
    },
    {
      "constant": false,
      "inputs": [
        {
          "internalType": "bytes32",
          "name": "reservationId",
          "type": "bytes32"
        }
      ],
      "name": "removeReservation",
      "outputs": [],
      "payable": false,
      "stateMutability": "nonpayable",
      "type": "function"
    },
    {
      "constant": true,
      "inputs": [
        {
          "internalType": "bytes32",
          "name": "companyId",
          "type": "bytes32"
        },
        {
          "internalType": "bytes32",
          "name": "roomId",
          "type": "bytes32"
        },
        {
          "internalType": "uint8",
          "name": "year",
          "type": "uint8"
        },
        {
          "internalType": "uint8",
          "name": "month",
          "type": "uint8"
        },
        {
          "internalType": "uint8",
          "name": "day",
          "type": "uint8"
        },
        {
          "internalType": "uint256",
          "name": "hour",
          "type": "uint256"
        }
      ],
      "name": "isRoomAvailable",
      "outputs": [
        {
          "internalType": "bool",
          "name": "",
          "type": "bool"
        }
      ],
      "payable": false,
      "stateMutability": "view",
      "type": "function"
    }
  ],
  "bytecode": "0x608060405234801561001057600080fd5b50604051610e54380380610e548339818101604052602081101561003357600080fd5b810190808051906020019092919050505060008190806001815401808255809150509060018203906000526020600020016000909192909190916101000a81548173ffffffffffffffffffffffffffffffffffffffff021916908373ffffffffffffffffffffffffffffffffffffffff1602179055505050610d9a806100ba6000396000f3fe608060405234801561001057600080fd5b50600436106100565760003560e01c806260c7781461005b5780633f001f2e14610089578063439d17511461010a57806363493a3014610138578063c6a40894146101b8575b600080fd5b6100876004803603602081101561007157600080fd5b81019080803590602001909291905050506101fc565b005b6100f0600480360360c081101561009f57600080fd5b810190808035906020019092919080359060200190929190803560ff169060200190929190803560ff169060200190929190803560ff16906020019092919080359060200190929190505050610369565b604051808215151515815260200191505060405180910390f35b6101366004803603602081101561012057600080fd5b81019080803590602001909291905050506103f0565b005b6101a2600480360360c081101561014e57600080fd5b810190808035906020019092919080359060200190929190803560ff169060200190929190803560ff169060200190929190803560ff169060200190929190803560ff169060200190929190505050610536565b6040518082815260200191505060405180910390f35b6101fa600480360360208110156101ce57600080fd5b81019080803573ffffffffffffffffffffffffffffffffffffffff169060200190929190505050610781565b005b3361020681610904565b61020f57600080fd5b60008061021b84610a28565b9150915080610292576040517f08c379a00000000000000000000000000000000000000000000000000000000081526004018080602001828103825260178152602001807f436f6d70616e7920646f6573206e6f742065786973747300000000000000000081525060200191505060405180910390fd5b60008083815481106102a057fe5b9060005260206000200160009054906101000a900473ffffffffffffffffffffffffffffffffffffffff1690506000600160008054905003815481106102e257fe5b9060005260206000200160009054906101000a900473ffffffffffffffffffffffffffffffffffffffff166000848154811061031a57fe5b9060005260206000200160006101000a81548173ffffffffffffffffffffffffffffffffffffffff021916908373ffffffffffffffffffffffffffffffffffffffff1602179055505050505050565b60008061037a888888888888610b2a565b9050600073ffffffffffffffffffffffffffffffffffffffff166001600083815260200190815260200160002060010160009054906101000a900473ffffffffffffffffffffffffffffffffffffffff1673ffffffffffffffffffffffffffffffffffffffff1614159150509695505050505050565b336103fa81610c38565b61040357600080fd5b600073ffffffffffffffffffffffffffffffffffffffff166001600084815260200190815260200160002060010160009054906101000a900473ffffffffffffffffffffffffffffffffffffffff1673ffffffffffffffffffffffffffffffffffffffff1614156104dc576040517f08c379a00000000000000000000000000000000000000000000000000000000081526004018080602001828103825260208152602001807f5265736572766174696f6e206973206e6f7420696e207468652073797374656d81525060200191505060405180910390fd5b60006001600084815260200190815260200160002060010160006101000a81548173ffffffffffffffffffffffffffffffffffffffff021916908373ffffffffffffffffffffffffffffffffffffffff1602179055505050565b60003361054281610c38565b61054b57600080fd5b600061055e89898989898960ff16610b2a565b9050600073ffffffffffffffffffffffffffffffffffffffff166001600083815260200190815260200160002060010160009054906101000a900473ffffffffffffffffffffffffffffffffffffffff1673ffffffffffffffffffffffffffffffffffffffff1614610638576040517f08c379a00000000000000000000000000000000000000000000000000000000081526004018080602001828103825260158152602001807f526f6f6d206973206e6f7420617661696c61626c65000000000000000000000081525060200191505060405180910390fd5b6040518060c001604052808281526020013373ffffffffffffffffffffffffffffffffffffffff1681526020018860ff1681526020018760ff1681526020018660ff1681526020018560ff16815250600160008381526020019081526020016000206000820151816000015560208201518160010160006101000a81548173ffffffffffffffffffffffffffffffffffffffff021916908373ffffffffffffffffffffffffffffffffffffffff16021790555060408201518160010160146101000a81548160ff021916908360ff16021790555060608201518160010160156101000a81548160ff021916908360ff16021790555060808201518160010160166101000a81548160ff021916908360ff16021790555060a08201518160010160176101000a81548160ff021916908360ff16021790555090505080925050509695505050505050565b3361078b81610904565b61079457600080fd5b6000806108208473ffffffffffffffffffffffffffffffffffffffff166330e3b0836040518163ffffffff1660e01b815260040160206040518083038186803b1580156107e057600080fd5b505afa1580156107f4573d6000803e3d6000fd5b505050506040513d602081101561080a57600080fd5b8101908080519060200190929190505050610a28565b915091508015610898576040517f08c379a00000000000000000000000000000000000000000000000000000000081526004018080602001828103825260198152602001807f436f6d70616e792077617320616c72656164792061646465640000000000000081525060200191505060405180910390fd5b60008490806001815401808255809150509060018203906000526020600020016000909192909190916101000a81548173ffffffffffffffffffffffffffffffffffffffff021916908373ffffffffffffffffffffffffffffffffffffffff1602179055505050505050565b600080600090505b6001600080549050038111610a1d578273ffffffffffffffffffffffffffffffffffffffff166000828154811061093f57fe5b9060005260206000200160009054906101000a900473ffffffffffffffffffffffffffffffffffffffff1673ffffffffffffffffffffffffffffffffffffffff1663893d20e86040518163ffffffff1660e01b815260040160206040518083038186803b1580156109af57600080fd5b505afa1580156109c3573d6000803e3d6000fd5b505050506040513d60208110156109d957600080fd5b810190808051906020019092919050505073ffffffffffffffffffffffffffffffffffffffff161415610a10576001915050610a23565b808060010191505061090c565b50600090505b919050565b60008060008090505b6001600080549050038111610b19578360008281548110610a4e57fe5b9060005260206000200160009054906101000a900473ffffffffffffffffffffffffffffffffffffffff1673ffffffffffffffffffffffffffffffffffffffff166330e3b0836040518163ffffffff1660e01b815260040160206040518083038186803b158015610abe57600080fd5b505afa158015610ad2573d6000803e3d6000fd5b505050506040513d6020811015610ae857600080fd5b81019080805190602001909291905050501415610b0c578060019250925050610b25565b8080600101915050610a31565b50600080819150915091505b915091565b60006002878787878787604051602001808781526020018681526020018560ff1660ff1660f81b81526001018460ff1660ff1660f81b81526001018360ff1660ff1660f81b815260010182815260200196505050505050506040516020818303038152906040526040518082805190602001908083835b60208310610bc45780518252602082019150602081019050602083039250610ba1565b6001836020036101000a038019825116818451168082178552505050505050905001915050602060405180830381855afa158015610c06573d6000803e3d6000fd5b5050506040513d6020811015610c1b57600080fd5b810190808051906020019092919050505090509695505050505050565b600080600090505b6001600080549050038111610d5a5760008181548110610c5c57fe5b9060005260206000200160009054906101000a900473ffffffffffffffffffffffffffffffffffffffff1673ffffffffffffffffffffffffffffffffffffffff1663ea66543f846040518263ffffffff1660e01b8152600401808273ffffffffffffffffffffffffffffffffffffffff1673ffffffffffffffffffffffffffffffffffffffff16815260200191505060206040518083038186803b158015610d0357600080fd5b505afa158015610d17573d6000803e3d6000fd5b505050506040513d6020811015610d2d57600080fd5b810190808051906020019092919050505015610d4d576001915050610d60565b8080600101915050610c40565b50600090505b91905056fea265627a7a72315820525f2dfe477604a1d775919d1f5db4bf1a8a29a7c23a7c5e3039a9c51148309364736f6c634300050c0032",
  "source": "pragma solidity ^0.5.0;\n\nimport \"./Company.sol\";\n\ncontract RoomBooking {\n\n    struct Reservation {\n        bytes32 reservationId;\n        address employeeAddr;\n        uint8 year;\n        uint8 month;\n        uint8 day;\n        uint8 hour;\n    }\n\n    modifier onlyCompanyOwners(address addr) {\n        require(_isCompanyOwner(addr));\n        _;\n    }\n\n    // @TODO Decide if we want to include company address as employee\n    modifier onlyCompanyEmployee(address addr) {\n        require(_isCompanyEmployee(addr));\n        _;\n    }\n\n    // List of companies included in the booking engine\n    Company[] _companies;\n\n    // List of reservations in the system\n    mapping(bytes32 => Reservation) _reservations;\n\n\n    event CompanyAdded(bytes32 companyId);\n    event CompanyRemoved(bytes32 companyId);\n    event ReservationAdded(bytes32 reservationId, bytes32 companyId, bytes32 roomId);\n    event ReservationRemoved(bytes32 reservationId);\n\n    constructor(Company company) public {\n        _companies.push(company);\n    }\n\n    /*\n     * COMPANIES MANAGING\n    */\n\n    function appendCompany(Company company) onlyCompanyOwners(msg.sender) public {\n        (uint idx, bool exists) = _getCompanyIndex(company._companyId());\n        if (exists) {\n            revert(\"Company was already added\");\n        }\n\n        // @TODO Validate if company was already added\n        _companies.push(company);\n    }\n\n    function removeCompany(bytes32 companyId) onlyCompanyOwners(msg.sender) public {\n        (uint idx, bool exists) = _getCompanyIndex(companyId);\n\n        if (!exists) {\n            revert(\"Company does not exists\");\n        }\n\n        Company company = _companies[idx];\n        _companies[idx] = _companies[_companies.length - 1];\n    }\n\n    function _getCompanyIndex(bytes32 companyId) internal view returns (uint index, bool exists) {\n        for (uint idx = 0; idx <= _companies.length - 1; idx++) {\n            if (_companies[idx]._companyId() == companyId) return (idx, true);\n        }\n\n        return (0, false);\n    }\n\n    /*\n     * ROOM BOOKING\n    */\n\n    function createReservation(bytes32 companyId, bytes32 roomId, uint8 year, uint8 month, uint8 day, uint8 hour)\n    onlyCompanyEmployee(msg.sender) public returns (bytes32) {\n        bytes32 reservationId = _reservationMapKey(companyId, roomId, year, month, day, hour);\n\n        if(_reservations[reservationId].employeeAddr != address(0x0)) revert(\"Room is not available\");\n\n        _reservations[reservationId] = Reservation({\n            reservationId : reservationId,\n            employeeAddr : msg.sender,\n            year : year,\n            month : month,\n            day : day,\n            hour : hour\n            });\n\n        return reservationId;\n    }\n\n\n    function removeReservation(bytes32 reservationId) onlyCompanyEmployee(msg.sender) public {\n        require(_reservations[reservationId].employeeAddr != address(0x0), \"Reservation is not in the system\");\n        _reservations[reservationId].employeeAddr = address(0x0);\n    }\n\n    function isRoomAvailable(bytes32 companyId, bytes32 roomId, uint8 year, uint8 month, uint8 day, uint hour)\n    public view returns (bool) {\n        bytes32 reservationId = _reservationMapKey(companyId, roomId, year, month, day, hour);\n        return _reservations[reservationId].employeeAddr != address(0x0);\n    }\n\n\n    /*\n     * HELPERS\n    */\n\n    function _isCompanyOwner(address addr) internal view returns (bool) {\n        for (uint idx = 0; idx <= _companies.length - 1; idx++) {\n            if (_companies[idx].getOwner() == addr) return true;\n        }\n        return false;\n    }\n\n    function _isCompanyEmployee(address addr) internal view returns (bool) {\n        for (uint idx = 0; idx <= _companies.length - 1; idx++) {\n            if (_companies[idx].isEmployee(addr)) return true;\n        }\n        return false;\n    }\n\n    function _reservationMapKey(bytes32 companyId, bytes32 roomId, uint8 year, uint8 month, uint8 day, uint hour)\n    internal view returns (bytes32) {\n        return sha256(abi.encodePacked(companyId, roomId, year, month, day, hour));\n    }\n}\n",
  "sourcePath": "/home/ggarrido/projects/room-booking-dapp/contracts/RoomBooking.sol",
  "compiler": {
    "name": "solc",
    "version": "0.5.12+commit.7709ece9.Emscripten.clang"
  },
  "schemaVersion": "3.0.20",
  "updatedAt": "2020-01-10T18:49:09.859Z",
  "devdoc": {
    "methods": {}
  },
  "userdoc": {
    "methods": {}
  }
}