{
  "contractName": "RoomBooking",
  "abi": [
    {
      "inputs": [
        {
          "internalType": "contract Company",
          "name": "company",
          "type": "address"
        }
      ],
      "payable": false,
      "stateMutability": "nonpayable",
      "type": "constructor"
    },
    {
      "anonymous": false,
      "inputs": [
        {
          "indexed": false,
          "internalType": "bytes32",
          "name": "companyId",
          "type": "bytes32"
        },
        {
          "indexed": false,
          "internalType": "uint256",
          "name": "idx",
          "type": "uint256"
        }
      ],
      "name": "CompanyAdded",
      "type": "event"
    },
    {
      "anonymous": false,
      "inputs": [
        {
          "indexed": false,
          "internalType": "bytes32",
          "name": "companyId",
          "type": "bytes32"
        }
      ],
      "name": "CompanyRemoved",
      "type": "event"
    },
    {
      "anonymous": false,
      "inputs": [
        {
          "indexed": false,
          "internalType": "bytes32",
          "name": "reservationId",
          "type": "bytes32"
        },
        {
          "indexed": false,
          "internalType": "bytes32",
          "name": "companyId",
          "type": "bytes32"
        },
        {
          "indexed": false,
          "internalType": "bytes32",
          "name": "roomId",
          "type": "bytes32"
        }
      ],
      "name": "ReservationAdded",
      "type": "event"
    },
    {
      "anonymous": false,
      "inputs": [
        {
          "indexed": false,
          "internalType": "bytes32",
          "name": "reservationId",
          "type": "bytes32"
        }
      ],
      "name": "ReservationRemoved",
      "type": "event"
    },
    {
      "constant": true,
      "inputs": [
        {
          "internalType": "address",
          "name": "addr",
          "type": "address"
        }
      ],
      "name": "isAddressAdmin",
      "outputs": [
        {
          "internalType": "bool",
          "name": "",
          "type": "bool"
        }
      ],
      "payable": false,
      "stateMutability": "view",
      "type": "function"
    },
    {
      "constant": false,
      "inputs": [
        {
          "internalType": "contract Company",
          "name": "company",
          "type": "address"
        }
      ],
      "name": "appendCompany",
      "outputs": [],
      "payable": false,
      "stateMutability": "nonpayable",
      "type": "function"
    },
    {
      "constant": false,
      "inputs": [
        {
          "internalType": "bytes32",
          "name": "companyId",
          "type": "bytes32"
        }
      ],
      "name": "removeCompany",
      "outputs": [],
      "payable": false,
      "stateMutability": "nonpayable",
      "type": "function"
    },
    {
      "constant": false,
      "inputs": [
        {
          "internalType": "bytes32",
          "name": "companyId",
          "type": "bytes32"
        },
        {
          "internalType": "bytes32",
          "name": "roomId",
          "type": "bytes32"
        },
        {
          "internalType": "uint8",
          "name": "year",
          "type": "uint8"
        },
        {
          "internalType": "uint8",
          "name": "month",
          "type": "uint8"
        },
        {
          "internalType": "uint8",
          "name": "day",
          "type": "uint8"
        },
        {
          "internalType": "uint8",
          "name": "hour",
          "type": "uint8"
        }
      ],
      "name": "createReservation",
      "outputs": [],
      "payable": false,
      "stateMutability": "nonpayable",
      "type": "function"
    },
    {
      "constant": false,
      "inputs": [
        {
          "internalType": "bytes32",
          "name": "reservationId",
          "type": "bytes32"
        }
      ],
      "name": "removeReservation",
      "outputs": [],
      "payable": false,
      "stateMutability": "nonpayable",
      "type": "function"
    },
    {
      "constant": true,
      "inputs": [
        {
          "internalType": "bytes32",
          "name": "companyId",
          "type": "bytes32"
        },
        {
          "internalType": "bytes32",
          "name": "roomId",
          "type": "bytes32"
        },
        {
          "internalType": "uint8",
          "name": "year",
          "type": "uint8"
        },
        {
          "internalType": "uint8",
          "name": "month",
          "type": "uint8"
        },
        {
          "internalType": "uint8",
          "name": "day",
          "type": "uint8"
        },
        {
          "internalType": "uint256",
          "name": "hour",
          "type": "uint256"
        }
      ],
      "name": "isRoomAvailable",
      "outputs": [
        {
          "internalType": "bool",
          "name": "",
          "type": "bool"
        }
      ],
      "payable": false,
      "stateMutability": "view",
      "type": "function"
    },
    {
      "constant": true,
      "inputs": [
        {
          "internalType": "bytes32",
          "name": "rId",
          "type": "bytes32"
        }
      ],
      "name": "reservationInfo",
      "outputs": [
        {
          "internalType": "address",
          "name": "employeeAddr",
          "type": "address"
        },
        {
          "internalType": "uint8",
          "name": "year",
          "type": "uint8"
        },
        {
          "internalType": "uint8",
          "name": "month",
          "type": "uint8"
        },
        {
          "internalType": "uint8",
          "name": "day",
          "type": "uint8"
        },
        {
          "internalType": "uint8",
          "name": "hour",
          "type": "uint8"
        }
      ],
      "payable": false,
      "stateMutability": "view",
      "type": "function"
    }
  ],
  "bytecode": "0x608060405234801561001057600080fd5b506040516113653803806113658339818101604052602081101561003357600080fd5b810190808051906020019092919050505060008190806001815401808255809150509060018203906000526020600020016000909192909190916101000a81548173ffffffffffffffffffffffffffffffffffffffff021916908373ffffffffffffffffffffffffffffffffffffffff16021790555050506112ab806100ba6000396000f3fe608060405234801561001057600080fd5b506004361061007c5760003560e01c806363493a301161005b57806363493a301461015e57806381e13d05146101ca578063aa7f31771461026c578063c6a40894146102c85761007c565b806260c778146100815780633f001f2e146100af578063439d175114610130575b600080fd5b6100ad6004803603602081101561009757600080fd5b810190808035906020019092919050505061030c565b005b610116600480360360c08110156100c557600080fd5b810190808035906020019092919080359060200190929190803560ff169060200190929190803560ff169060200190929190803560ff169060200190929190803590602001909291905050506104b0565b604051808215151515815260200191505060405180910390f35b61015c6004803603602081101561014657600080fd5b8101908080359060200190929190505050610536565b005b6101c8600480360360c081101561017457600080fd5b810190808035906020019092919080359060200190929190803560ff169060200190929190803560ff169060200190929190803560ff169060200190929190803560ff1690602001909291905050506106b3565b005b6101f6600480360360208110156101e057600080fd5b8101908080359060200190929190505050610a8f565b604051808673ffffffffffffffffffffffffffffffffffffffff1673ffffffffffffffffffffffffffffffffffffffff1681526020018560ff1660ff1681526020018460ff1660ff1681526020018360ff1660ff1681526020018260ff1660ff1681526020019550505050505060405180910390f35b6102ae6004803603602081101561028257600080fd5b81019080803573ffffffffffffffffffffffffffffffffffffffff169060200190929190505050610b71565b604051808215151515815260200191505060405180910390f35b61030a600480360360208110156102de57600080fd5b81019080803573ffffffffffffffffffffffffffffffffffffffff169060200190929190505050610b83565b005b3361031681610dcd565b61031f57600080fd5b60008061032b84610f07565b91509150806103a2576040517f08c379a00000000000000000000000000000000000000000000000000000000081526004018080602001828103825260178152602001807f436f6d70616e7920646f6573206e6f742065786973747300000000000000000081525060200191505060405180910390fd5b60008083815481106103b057fe5b9060005260206000200160009054906101000a900473ffffffffffffffffffffffffffffffffffffffff1690506000600160008054905003815481106103f257fe5b9060005260206000200160009054906101000a900473ffffffffffffffffffffffffffffffffffffffff166000848154811061042a57fe5b9060005260206000200160006101000a81548173ffffffffffffffffffffffffffffffffffffffff021916908373ffffffffffffffffffffffffffffffffffffffff1602179055507fed162bee5d3d674d6df45b4203982bbc6fecc2f526e417a24e9e247020861ca4856040518082815260200191505060405180910390a15050505050565b6000806104c1888888888888611025565b9050600073ffffffffffffffffffffffffffffffffffffffff166001600083815260200190815260200160002060010160009054906101000a900473ffffffffffffffffffffffffffffffffffffffff1673ffffffffffffffffffffffffffffffffffffffff16149150509695505050505050565b3361054081611133565b61054957600080fd5b600073ffffffffffffffffffffffffffffffffffffffff166001600084815260200190815260200160002060010160009054906101000a900473ffffffffffffffffffffffffffffffffffffffff1673ffffffffffffffffffffffffffffffffffffffff161415610622576040517f08c379a00000000000000000000000000000000000000000000000000000000081526004018080602001828103825260208152602001807f5265736572766174696f6e206973206e6f7420696e207468652073797374656d81525060200191505060405180910390fd5b60006001600084815260200190815260200160002060010160006101000a81548173ffffffffffffffffffffffffffffffffffffffff021916908373ffffffffffffffffffffffffffffffffffffffff1602179055507f2dbecc657461fc451d45ea6ac0d1d97ffdcf0444484b987f4d391d4038695302826040518082815260200191505060405180910390a15050565b336106bd81611133565b6106c657600080fd5b6000806106d289610f07565b9150915080610749576040517f08c379a00000000000000000000000000000000000000000000000000000000081526004018080602001828103825260178152602001807f436f6d70616e7920646f6573206e6f742065786973747300000000000000000081525060200191505060405180910390fd5b6000828154811061075657fe5b9060005260206000200160009054906101000a900473ffffffffffffffffffffffffffffffffffffffff1673ffffffffffffffffffffffffffffffffffffffff1663e88724fd896040518263ffffffff1660e01b81526004018082815260200191505060206040518083038186803b1580156107d157600080fd5b505afa1580156107e5573d6000803e3d6000fd5b505050506040513d60208110156107fb57600080fd5b810190808051906020019092919050505061081557600080fd5b60006108288a8a8a8a8a8a60ff16611025565b9050600073ffffffffffffffffffffffffffffffffffffffff166001600083815260200190815260200160002060010160009054906101000a900473ffffffffffffffffffffffffffffffffffffffff1673ffffffffffffffffffffffffffffffffffffffff1614610902576040517f08c379a00000000000000000000000000000000000000000000000000000000081526004018080602001828103825260158152602001807f526f6f6d206973206e6f7420617661696c61626c65000000000000000000000081525060200191505060405180910390fd5b6040518060c001604052808281526020013373ffffffffffffffffffffffffffffffffffffffff1681526020018960ff1681526020018860ff1681526020018760ff1681526020018660ff16815250600160008381526020019081526020016000206000820151816000015560208201518160010160006101000a81548173ffffffffffffffffffffffffffffffffffffffff021916908373ffffffffffffffffffffffffffffffffffffffff16021790555060408201518160010160146101000a81548160ff021916908360ff16021790555060608201518160010160156101000a81548160ff021916908360ff16021790555060808201518160010160166101000a81548160ff021916908360ff16021790555060a08201518160010160176101000a81548160ff021916908360ff1602179055509050507f504287386cfbeca1002434c9787d4ab89cbef444bf0bc4de480f7a954c77a830818b8b60405180848152602001838152602001828152602001935050505060405180910390a150505050505050505050565b60008060008060006001600087815260200190815260200160002060010160009054906101000a900473ffffffffffffffffffffffffffffffffffffffff166001600088815260200190815260200160002060010160149054906101000a900460ff166001600089815260200190815260200160002060010160159054906101000a900460ff16600160008a815260200190815260200160002060010160169054906101000a900460ff16600160008b815260200190815260200160002060010160179054906101000a900460ff169450945094509450945091939590929450565b6000610b7c82610dcd565b9050919050565b33610b8d81610dcd565b610b9657600080fd5b600080610c228473ffffffffffffffffffffffffffffffffffffffff166330e3b0836040518163ffffffff1660e01b815260040160206040518083038186803b158015610be257600080fd5b505afa158015610bf6573d6000803e3d6000fd5b505050506040513d6020811015610c0c57600080fd5b8101908080519060200190929190505050610f07565b915091508015610c9a576040517f08c379a00000000000000000000000000000000000000000000000000000000081526004018080602001828103825260198152602001807f436f6d70616e792077617320616c72656164792061646465640000000000000081525060200191505060405180910390fd5b60008490806001815401808255809150509060018203906000526020600020016000909192909190916101000a81548173ffffffffffffffffffffffffffffffffffffffff021916908373ffffffffffffffffffffffffffffffffffffffff160217905550507f8a6dc95553cb27b47efd3bedb7de10b38650e4e5abbb10f8cafdcdb6be92d8e98473ffffffffffffffffffffffffffffffffffffffff166330e3b0836040518163ffffffff1660e01b815260040160206040518083038186803b158015610d6757600080fd5b505afa158015610d7b573d6000803e3d6000fd5b505050506040513d6020811015610d9157600080fd5b8101908080519060200190929190505050600160008054905003604051808381526020018281526020019250505060405180910390a150505050565b6000806000805490501415610de55760009050610f02565b60008090505b6001600080549050038111610efc578273ffffffffffffffffffffffffffffffffffffffff1660008281548110610e1e57fe5b9060005260206000200160009054906101000a900473ffffffffffffffffffffffffffffffffffffffff1673ffffffffffffffffffffffffffffffffffffffff1663893d20e86040518163ffffffff1660e01b815260040160206040518083038186803b158015610e8e57600080fd5b505afa158015610ea2573d6000803e3d6000fd5b505050506040513d6020811015610eb857600080fd5b810190808051906020019092919050505073ffffffffffffffffffffffffffffffffffffffff161415610eef576001915050610f02565b8080600101915050610deb565b50600090505b919050565b600080600080805490501415610f265760008081915091509150611020565b60008090505b6001600080549050038111611014578360008281548110610f4957fe5b9060005260206000200160009054906101000a900473ffffffffffffffffffffffffffffffffffffffff1673ffffffffffffffffffffffffffffffffffffffff166330e3b0836040518163ffffffff1660e01b815260040160206040518083038186803b158015610fb957600080fd5b505afa158015610fcd573d6000803e3d6000fd5b505050506040513d6020811015610fe357600080fd5b81019080805190602001909291905050501415611007578060019250925050611020565b8080600101915050610f2c565b50600080819150915091505b915091565b60006002878787878787604051602001808781526020018681526020018560ff1660ff1660f81b81526001018460ff1660ff1660f81b81526001018360ff1660ff1660f81b815260010182815260200196505050505050506040516020818303038152906040526040518082805190602001908083835b602083106110bf578051825260208201915060208101905060208303925061109c565b6001836020036101000a038019825116818451168082178552505050505050905001915050602060405180830381855afa158015611101573d6000803e3d6000fd5b5050506040513d602081101561111657600080fd5b810190808051906020019092919050505090509695505050505050565b600080600080549050141561114b5760009050611271565b60008090505b600160008054905003811161126b576000818154811061116d57fe5b9060005260206000200160009054906101000a900473ffffffffffffffffffffffffffffffffffffffff1673ffffffffffffffffffffffffffffffffffffffff16631024f223846040518263ffffffff1660e01b8152600401808273ffffffffffffffffffffffffffffffffffffffff1673ffffffffffffffffffffffffffffffffffffffff16815260200191505060206040518083038186803b15801561121457600080fd5b505afa158015611228573d6000803e3d6000fd5b505050506040513d602081101561123e57600080fd5b81019080805190602001909291905050501561125e576001915050611271565b8080600101915050611151565b50600090505b91905056fea265627a7a7231582043fa570716d087249e8bc9a1408de54b8852a5056d4c7d9b01bd7e39521009b564736f6c634300050c0032",
  "source": "pragma solidity ^0.5.0;\n\nimport \"./Company.sol\";\n\ncontract RoomBooking {\n\n    struct Reservation {\n        bytes32 reservationId;\n        address employeeAddr;\n        uint8 year;\n        uint8 month;\n        uint8 day;\n        uint8 hour;\n    }\n\n    modifier onlyAdmin(address addr) {\n        require(_isCompanyOwner(addr));\n        _;\n    }\n\n    // @TODO Decide if we want to include company address as employee\n    modifier onlyEmployees(address addr) {\n        require(_isCompanyEmployee(addr));\n        _;\n    }\n\n    // List of companies included in the booking engine\n    Company[] _companies;\n\n    // List of reservations in the system\n    mapping(bytes32 => Reservation) _reservations;\n\n\n    event CompanyAdded(bytes32 companyId, uint idx);\n    event CompanyRemoved(bytes32 companyId);\n    event ReservationAdded(bytes32 reservationId, bytes32 companyId, bytes32 roomId);\n    event ReservationRemoved(bytes32 reservationId);\n\n    constructor(Company company) public {\n        _companies.push(company);\n    }\n\n    function isAddressAdmin(address addr) public view returns (bool) {\n        return _isCompanyOwner(addr);\n    }\n\n    /*\n     * COMPANIES MANAGING\n    */\n\n    function appendCompany(Company company) onlyAdmin(msg.sender) public {\n        (uint idx, bool exists) = _getCompanyIndex(company._companyId());\n        if (exists) {\n            revert(\"Company was already added\");\n        }\n\n        _companies.push(company);\n        emit CompanyAdded(company._companyId(), _companies.length -1);\n    }\n\n    function removeCompany(bytes32 companyId) onlyAdmin(msg.sender) public {\n        (uint idx, bool exists) = _getCompanyIndex(companyId);\n\n        if (!exists) {\n            revert(\"Company does not exists\");\n        }\n\n        Company company = _companies[idx];\n        _companies[idx] = _companies[_companies.length - 1];\n        emit CompanyRemoved(companyId);\n    }\n\n    /*\n     * ROOM BOOKING\n    */\n\n    function createReservation(bytes32 companyId, bytes32 roomId, uint8 year, uint8 month, uint8 day, uint8 hour)\n    onlyEmployees(msg.sender) public {\n        (uint companyIdx, bool exists) = _getCompanyIndex(companyId);\n\n        require(exists, \"Company does not exists\");\n        require(Company(_companies[companyIdx]).roomExists(roomId));\n\n        bytes32 reservationId = _reservationMapKey(companyId, roomId, year, month, day, hour);\n\n        if(_reservations[reservationId].employeeAddr != address(0x0)) revert(\"Room is not available\");\n\n        _reservations[reservationId] = Reservation({\n            reservationId : reservationId,\n            employeeAddr : msg.sender,\n            year : year,\n            month : month,\n            day : day,\n            hour : hour\n            });\n\n        emit ReservationAdded(reservationId, companyId, roomId);\n    }\n\n\n    function removeReservation(bytes32 reservationId) onlyEmployees(msg.sender) public {\n        require(_reservations[reservationId].employeeAddr != address(0x0), \"Reservation is not in the system\");\n        _reservations[reservationId].employeeAddr = address(0x0);\n        emit ReservationRemoved(reservationId);\n    }\n\n    function isRoomAvailable(bytes32 companyId, bytes32 roomId, uint8 year, uint8 month, uint8 day, uint hour)\n    public view returns (bool) {\n        bytes32 reservationId = _reservationMapKey(companyId, roomId, year, month, day, hour);\n        return _reservations[reservationId].employeeAddr == address(0x0);\n    }\n\n    function reservationInfo(bytes32 rId) public view\n    returns (address employeeAddr, uint8 year, uint8 month, uint8 day, uint8 hour) {\n        return (\n        _reservations[rId].employeeAddr,\n        _reservations[rId].year,\n        _reservations[rId].month,\n        _reservations[rId].day,\n        _reservations[rId].hour\n        );\n    }\n\n\n    /*\n     * HELPERS\n    */\n\n    function _isCompanyOwner(address addr) internal view returns (bool) {\n        if (_companies.length == 0) return false;\n\n        for (uint idx = 0; idx <= _companies.length - 1; idx++) {\n            if (_companies[idx].getOwner() == addr) return true;\n        }\n        return false;\n    }\n\n    function _getCompanyIndex(bytes32 companyId) internal view returns (uint index, bool exists) {\n        if (_companies.length == 0) return (0, false);\n\n        for (uint idx = 0; idx <= _companies.length - 1; idx++) {\n            if (_companies[idx]._companyId() == companyId) return (idx, true);\n        }\n\n        return (0, false);\n    }\n\n    function _isCompanyEmployee(address addr) internal view returns (bool) {\n        if (_companies.length == 0) return false;\n\n        for (uint idx = 0; idx <= _companies.length - 1; idx++) {\n            if (_companies[idx].employeeExists(addr)) return true;\n        }\n        return false;\n    }\n\n    function _reservationMapKey(bytes32 companyId, bytes32 roomId, uint8 year, uint8 month, uint8 day, uint hour)\n    internal view returns (bytes32) {\n        return sha256(abi.encodePacked(companyId, roomId, year, month, day, hour));\n    }\n}\n",
  "sourcePath": "/home/ggarrido/projects/room-booking-dapp/contracts/RoomBooking.sol",
  "compiler": {
    "name": "solc",
    "version": "0.5.12+commit.7709ece9.Emscripten.clang"
  },
  "schemaVersion": "3.0.20",
  "updatedAt": "2020-01-11T17:49:20.013Z",
  "devdoc": {
    "methods": {}
  },
  "userdoc": {
    "methods": {}
  }
}